{
  "_format": "hh-sol-artifact-1",
  "contractName": "Minesweeper",
  "sourceName": "src/Minesweeper.sol",
  "abi": [
    {
      "inputs": [
        {
          "internalType": "uint64",
          "name": "subscriptionId",
          "type": "uint64"
        }
      ],
      "stateMutability": "nonpayable",
      "type": "constructor"
    },
    {
      "inputs": [
        {
          "internalType": "address",
          "name": "have",
          "type": "address"
        },
        {
          "internalType": "address",
          "name": "want",
          "type": "address"
        }
      ],
      "name": "OnlyCoordinatorCanFulfill",
      "type": "error"
    },
    {
      "anonymous": false,
      "inputs": [
        {
          "indexed": true,
          "internalType": "address",
          "name": "buyer",
          "type": "address"
        },
        {
          "indexed": false,
          "internalType": "uint8",
          "name": "numberOfTurns",
          "type": "uint8"
        }
      ],
      "name": "BuyTurn",
      "type": "event"
    },
    {
      "anonymous": false,
      "inputs": [
        {
          "indexed": true,
          "internalType": "address",
          "name": "player",
          "type": "address"
        },
        {
          "indexed": false,
          "internalType": "uint256",
          "name": "key",
          "type": "uint256"
        },
        {
          "indexed": false,
          "internalType": "uint256",
          "name": "cell",
          "type": "uint256"
        }
      ],
      "name": "OpenCell",
      "type": "event"
    },
    {
      "anonymous": false,
      "inputs": [
        {
          "indexed": true,
          "internalType": "address",
          "name": "previousOwner",
          "type": "address"
        },
        {
          "indexed": true,
          "internalType": "address",
          "name": "newOwner",
          "type": "address"
        }
      ],
      "name": "OwnershipTransferred",
      "type": "event"
    },
    {
      "anonymous": false,
      "inputs": [
        {
          "indexed": false,
          "internalType": "address",
          "name": "account",
          "type": "address"
        }
      ],
      "name": "Paused",
      "type": "event"
    },
    {
      "anonymous": false,
      "inputs": [
        {
          "indexed": false,
          "internalType": "address",
          "name": "account",
          "type": "address"
        }
      ],
      "name": "Unpaused",
      "type": "event"
    },
    {
      "inputs": [
        {
          "internalType": "uint8",
          "name": "numberOfTurns",
          "type": "uint8"
        }
      ],
      "name": "buyTurn",
      "outputs": [],
      "stateMutability": "payable",
      "type": "function"
    },
    {
      "inputs": [],
      "name": "fee",
      "outputs": [
        {
          "internalType": "uint256",
          "name": "",
          "type": "uint256"
        }
      ],
      "stateMutability": "view",
      "type": "function"
    },
    {
      "inputs": [],
      "name": "getAward",
      "outputs": [
        {
          "internalType": "uint256[100]",
          "name": "",
          "type": "uint256[100]"
        }
      ],
      "stateMutability": "view",
      "type": "function"
    },
    {
      "inputs": [],
      "name": "getBalance",
      "outputs": [
        {
          "internalType": "uint256",
          "name": "",
          "type": "uint256"
        }
      ],
      "stateMutability": "view",
      "type": "function"
    },
    {
      "inputs": [],
      "name": "getBeneficiary",
      "outputs": [
        {
          "internalType": "address",
          "name": "",
          "type": "address"
        }
      ],
      "stateMutability": "view",
      "type": "function"
    },
    {
      "inputs": [
        {
          "internalType": "uint256",
          "name": "",
          "type": "uint256"
        }
      ],
      "name": "isOpen",
      "outputs": [
        {
          "internalType": "bool",
          "name": "",
          "type": "bool"
        }
      ],
      "stateMutability": "view",
      "type": "function"
    },
    {
      "inputs": [
        {
          "internalType": "uint256",
          "name": "key",
          "type": "uint256"
        }
      ],
      "name": "openCell",
      "outputs": [],
      "stateMutability": "nonpayable",
      "type": "function"
    },
    {
      "inputs": [],
      "name": "owner",
      "outputs": [
        {
          "internalType": "address",
          "name": "",
          "type": "address"
        }
      ],
      "stateMutability": "view",
      "type": "function"
    },
    {
      "inputs": [],
      "name": "paused",
      "outputs": [
        {
          "internalType": "bool",
          "name": "",
          "type": "bool"
        }
      ],
      "stateMutability": "view",
      "type": "function"
    },
    {
      "inputs": [],
      "name": "priceOfTurn",
      "outputs": [
        {
          "internalType": "uint256",
          "name": "",
          "type": "uint256"
        }
      ],
      "stateMutability": "view",
      "type": "function"
    },
    {
      "inputs": [
        {
          "internalType": "uint256",
          "name": "requestId",
          "type": "uint256"
        },
        {
          "internalType": "uint256[]",
          "name": "randomWords",
          "type": "uint256[]"
        }
      ],
      "name": "rawFulfillRandomWords",
      "outputs": [],
      "stateMutability": "nonpayable",
      "type": "function"
    },
    {
      "inputs": [],
      "name": "renounceOwnership",
      "outputs": [],
      "stateMutability": "nonpayable",
      "type": "function"
    },
    {
      "inputs": [],
      "name": "requestRandomWords",
      "outputs": [],
      "stateMutability": "nonpayable",
      "type": "function"
    },
    {
      "inputs": [],
      "name": "s_requestId",
      "outputs": [
        {
          "internalType": "uint256",
          "name": "",
          "type": "uint256"
        }
      ],
      "stateMutability": "view",
      "type": "function"
    },
    {
      "inputs": [
        {
          "internalType": "uint256[100]",
          "name": "_awards",
          "type": "uint256[100]"
        }
      ],
      "name": "setAwards",
      "outputs": [],
      "stateMutability": "nonpayable",
      "type": "function"
    },
    {
      "inputs": [
        {
          "internalType": "address payable",
          "name": "_beneficiary",
          "type": "address"
        }
      ],
      "name": "setBeneficiary",
      "outputs": [],
      "stateMutability": "nonpayable",
      "type": "function"
    },
    {
      "inputs": [
        {
          "internalType": "uint256",
          "name": "price",
          "type": "uint256"
        }
      ],
      "name": "setPriceOfTurn",
      "outputs": [],
      "stateMutability": "nonpayable",
      "type": "function"
    },
    {
      "inputs": [],
      "name": "start",
      "outputs": [],
      "stateMutability": "nonpayable",
      "type": "function"
    },
    {
      "inputs": [],
      "name": "stopGame",
      "outputs": [],
      "stateMutability": "nonpayable",
      "type": "function"
    },
    {
      "inputs": [
        {
          "internalType": "address",
          "name": "newOwner",
          "type": "address"
        }
      ],
      "name": "transferOwnership",
      "outputs": [],
      "stateMutability": "nonpayable",
      "type": "function"
    },
    {
      "inputs": [
        {
          "internalType": "address",
          "name": "",
          "type": "address"
        }
      ],
      "name": "turns",
      "outputs": [
        {
          "internalType": "uint8",
          "name": "",
          "type": "uint8"
        }
      ],
      "stateMutability": "view",
      "type": "function"
    },
    {
      "stateMutability": "payable",
      "type": "receive"
    }
  ],
  "bytecode": "0x60a060405260708054600160401b600160e01b0319167b6a2aad07396b36fe02a22b33cf443582f682c82f0000000000000000179055607180547384b9b910527ad5c03a9ca831909e21e236ea7b066001600160a01b03199091161790557fd4bb89654db74673a187bd804519e65e3f71a52bc55f11da7601a13dcf505314607255607380546001600160501b03191666010003000186a0179055348015620000a757600080fd5b506040516200185538038062001855833981016040819052620000ca9162000282565b60705460016000819055805460ff191690556801000000000000000090046001600160a01b031662000103620000fd3390565b6200019c565b60601b6001600160601b03191660805260708054600380546001600160a01b0368010000000000000000840481166001600160a01b0319928316179092556071546004805491909316908216179091556001600160401b03199091166001600160401b0384161790915567016345785d8a0000600755600a6006556005805433921691909117905562000195620001f6565b50620002b4565b600180546001600160a01b03838116610100818102610100600160a81b031985161790945560405193909204169182907f8be0079c531659141344cd1fd0a4f28419497f9722a3daafe3b4186f6b6457e090600090a35050565b60015460ff1615620002415760405162461bcd60e51b815260206004820152601060248201526f14185d5cd8589b194e881c185d5cd95960821b604482015260640160405180910390fd5b6001805460ff1916811790556040805133815290517f62e78cea01bee320cd4e420270b5ea74000d11b0c9f74754ebdbfc544b05a2589181900360200190a1565b6000602082840312156200029557600080fd5b81516001600160401b0381168114620002ad57600080fd5b9392505050565b60805160601c61157b620002da6000396000818161046601526104a8015261157b6000f3fe60806040526004361061012e5760003560e01c806389338805116100ab578063ddca3f431161006f578063ddca3f431461033a578063e0c8628914610350578063e89e106a14610365578063e8ad5d021461037b578063f2fde38b14610391578063fee50359146103b157600080fd5b806389338805146102a25780638da5cb5b146102c2578063be9a6555146102e5578063c77a96bb146102fa578063c9741d1e1461031a57600080fd5b8063565a2e2c116100f2578063565a2e2c146101f15780635c975abb1461021e578063715018a61461023657806375c240741461024b57806383bd72ba1461028d57600080fd5b806312065fe01461013a5780631c31f7101461015c5780631fe543e31461017e57806321f4b2a41461019e5780634d6861a6146101b157600080fd5b3661013557005b600080fd5b34801561014657600080fd5b50475b6040519081526020015b60405180910390f35b34801561016857600080fd5b5061017c610177366004611147565b6103d3565b005b34801561018a57600080fd5b5061017c610199366004611226565b61045b565b61017c6101ac3660046112df565b6104e3565b3480156101bd57600080fd5b506101e16101cc3660046111f4565b606e6020526000908152604090205460ff1681565b6040519015158152602001610153565b3480156101fd57600080fd5b506102066105d6565b6040516001600160a01b039091168152602001610153565b34801561022a57600080fd5b5060015460ff166101e1565b34801561024257600080fd5b5061017c610619565b34801561025757600080fd5b5061027b610266366004611147565b606f6020526000908152604090205460ff1681565b60405160ff9091168152602001610153565b34801561029957600080fd5b5061017c610655565b3480156102ae57600080fd5b5061017c6102bd36600461116b565b61068d565b3480156102ce57600080fd5b5060015461010090046001600160a01b0316610206565b3480156102f157600080fd5b5061017c6106ec565b34801561030657600080fd5b5061017c6103153660046111f4565b6107b4565b34801561032657600080fd5b5061017c6103353660046111f4565b610816565b34801561034657600080fd5b5061014960065481565b34801561035c57600080fd5b5061017c6109a8565b34801561037157600080fd5b5061014960095481565b34801561038757600080fd5b5061014960075481565b34801561039d57600080fd5b5061017c6103ac366004611147565b610aa5565b3480156103bd57600080fd5b506103c6610b46565b6040516101539190611302565b600260005414156103ff5760405162461bcd60e51b81526004016103f690611397565b60405180910390fd5b60026000556001546001600160a01b036101009091041633146104345760405162461bcd60e51b81526004016103f690611362565b600580546001600160a01b0319166001600160a01b03929092169190911790556001600055565b336001600160a01b037f000000000000000000000000000000000000000000000000000000000000000016146104d55760405163073e64fd60e21b81523360048201526001600160a01b037f00000000000000000000000000000000000000000000000000000000000000001660248201526044016103f6565b6104df8282610ba4565b5050565b600260005414156105065760405162461bcd60e51b81526004016103f690611397565b6002600090815560075461051d9060ff8416611450565b9050806105515760405162461bcd60e51b8152602060048201526002602482015261045360f41b60448201526064016103f6565b61055a81610bc9565b336000908152606f602052604090205461057890839060ff16611417565b336000818152606f6020908152604091829020805460ff191660ff9586161790559051928516835290917f491af188d0cc6bd5f86ed3d8e207da56bceb61b1867dc75154cd403bbdd4169b910160405180910390a250506001600055565b6001546000906001600160a01b036101009091041633146106095760405162461bcd60e51b81526004016103f690611362565b506005546001600160a01b031690565b6001546001600160a01b036101009091041633146106495760405162461bcd60e51b81526004016103f690611362565b6106536000610ca2565b565b6001546001600160a01b036101009091041633146106855760405162461bcd60e51b81526004016103f690611362565b610653610cfc565b60015460ff166106af5760405162461bcd60e51b81526004016103f690611334565b6001546001600160a01b036101009091041633146106df5760405162461bcd60e51b81526004016103f690611362565b6104df600a8260646110d5565b60015460ff1661070e5760405162461bcd60e51b81526004016103f690611334565b600260005414156107315760405162461bcd60e51b81526004016103f690611397565b60026000556001546001600160a01b036101009091041633146107665760405162461bcd60e51b81526004016103f690611362565b60085461079a5760405162461bcd60e51b8152602060048201526002602482015261453160f01b60448201526064016103f6565b6107a5600854610d8e565b6107ad610e50565b6001600055565b600260005414156107d75760405162461bcd60e51b81526004016103f690611397565b60026000556001546001600160a01b0361010090910416331461080c5760405162461bcd60e51b81526004016103f690611362565b6007556001600055565b600260005414156108395760405162461bcd60e51b81526004016103f690611397565b600260005560015460ff16156108845760405162461bcd60e51b815260206004820152601060248201526f14185d5cd8589b194e881c185d5cd95960821b60448201526064016103f6565b600254603214156108cd5760405162461bcd60e51b8152602060048201526013602482015272109bdbdb48109bdbdb481b9bdd08199bdd5b99606a1b60448201526064016103f6565b336000908152606f602052604090205460ff16158015906108fd57506000818152606e602052604090205460ff16155b61092e5760405162461bcd60e51b8152602060048201526002602482015261453360f01b60448201526064016103f6565b61093781610ea3565b6000818152606e60205260409020805460ff19166001179055337f2d9af8ddd62f34311323b7b381fced3bb766c01a9426354c5785c991ea5a811782600a816064811061098657610986611504565b01546040805192835260208301919091520160405180910390a2506001600055565b6001546001600160a01b036101009091041633146109d85760405162461bcd60e51b81526004016103f690611362565b6003546072546070546073546040516305d3b1d360e41b8152600481019390935267ffffffffffffffff9091166024830152640100000000810461ffff16604483015263ffffffff808216606484015266010000000000009091041660848201526001600160a01b0390911690635d3b1d309060a401602060405180830381600087803b158015610a6857600080fd5b505af1158015610a7c573d6000803e3d6000fd5b505050506040513d601f19601f82011682018060405250810190610aa0919061120d565b600955565b6001546001600160a01b03610100909104163314610ad55760405162461bcd60e51b81526004016103f690611362565b6001600160a01b038116610b3a5760405162461bcd60e51b815260206004820152602660248201527f4f776e61626c653a206e6577206f776e657220697320746865207a65726f206160448201526564647265737360d01b60648201526084016103f6565b610b4381610ca2565b50565b610b4e611113565b60015460ff16610b705760405162461bcd60e51b81526004016103f690611334565b60408051610c8081019182905290600a9060649082845b815481526020019060010190808311610b87575050505050905090565b80600081518110610bb757610bb7611504565b60200260200101516008819055505050565b803414610c0a5760405162461bcd60e51b815260206004820152600f60248201526e151c985b9cd9995c8819985a5b1959608a1b60448201526064016103f6565b604051600090309034908381818185875af1925050503d8060008114610c4c576040519150601f19603f3d011682016040523d82523d6000602084013e610c51565b606091505b50509050806104df5760405162461bcd60e51b815260206004820152601a60248201527f5472616e73666572206661696c65643a20676173206572726f7200000000000060448201526064016103f6565b600180546001600160a01b03838116610100818102610100600160a81b031985161790945560405193909204169182907f8be0079c531659141344cd1fd0a4f28419497f9722a3daafe3b4186f6b6457e090600090a35050565b60015460ff1615610d425760405162461bcd60e51b815260206004820152601060248201526f14185d5cd8589b194e881c185d5cd95960821b60448201526064016103f6565b6001805460ff1916811790557f62e78cea01bee320cd4e420270b5ea74000d11b0c9f74754ebdbfc544b05a258335b6040516001600160a01b03909116815260200160405180910390a1565b60005b60648110156104df576000610da782606461146f565b6040805160208101869052016040516020818303038152906040528051906020012060001c610dd691906114c4565b610de090836113ff565b90506000600a8260648110610df757610df7611504565b01549050600a8360648110610e0e57610e0e611504565b0154600a8360648110610e2357610e23611504565b015580600a8460648110610e3957610e39611504565b015550819050610e48816114a9565b915050610d91565b60015460ff16610e725760405162461bcd60e51b81526004016103f690611334565b6001805460ff191690557f5db9ee0a495bf2e6ff9c91a7834c1ba4fdd244a5e8aa4e537bd38aeae4b073aa33610d71565b600a8160648110610eb657610eb6611504565b0154610ee657610eca600280546001019055565b610b43336000908152606f60205260409020805460ff19169055565b600a8160648110610ef957610ef9611504565b015460051415610f4657336000908152606f6020526040902054610f229060019060ff16611486565b336000908152606f60205260409020805460ff191660ff9290921691909117905550565b6000600a47600a8460648110610f5e57610f5e611504565b0154610f6a9190611450565b610f74919061143c565b90506000606460065483610f889190611450565b610f92919061143c565b90506000610fa0828461146f565b9050610fac338261102d565b600554610fc2906001600160a01b03168361102d565b336000908152606f6020526040902054610fe19060019060ff16611486565b336000908152606f60205260409020805460ff191660ff92909216919091179055600a846064811061101557611015611504565b01546064141561102757611027610cfc565b50505050565b6000826001600160a01b03168260405160006040518083038185875af1925050503d806000811461107a576040519150601f19603f3d011682016040523d82523d6000602084013e61107f565b606091505b50509050806110d05760405162461bcd60e51b815260206004820152601a60248201527f5472616e73666572206661696c65643a20676173206572726f7200000000000060448201526064016103f6565b505050565b8260648101928215611103579160200282015b828111156111035782518255916020019190600101906110e8565b5061110f929150611132565b5090565b60405180610c8001604052806064906020820280368337509192915050565b5b8082111561110f5760008155600101611133565b60006020828403121561115957600080fd5b813561116481611530565b9392505050565b6000610c8080838503121561117f57600080fd5b83601f84011261118e57600080fd5b60405181810181811067ffffffffffffffff821117156111b0576111b061151a565b60405280848381018710156111c457600080fd5b600093505b60648410156111e9578035825260019390930192602091820191016111c9565b509095945050505050565b60006020828403121561120657600080fd5b5035919050565b60006020828403121561121f57600080fd5b5051919050565b6000806040838503121561123957600080fd5b8235915060208084013567ffffffffffffffff8082111561125957600080fd5b818601915086601f83011261126d57600080fd5b81358181111561127f5761127f61151a565b8060051b91506112908483016113ce565b8181528481019084860184860187018b10156112ab57600080fd5b600095505b838610156112ce5780358352600195909501949186019186016112b0565b508096505050505050509250929050565b6000602082840312156112f157600080fd5b813560ff8116811461116457600080fd5b610c808101818360005b606481101561132b57815183526020928301929091019060010161130c565b50505092915050565b60208082526014908201527314185d5cd8589b194e881b9bdd081c185d5cd95960621b604082015260600190565b6020808252818101527f4f776e61626c653a2063616c6c6572206973206e6f7420746865206f776e6572604082015260600190565b6020808252601f908201527f5265656e7472616e637947756172643a207265656e7472616e742063616c6c00604082015260600190565b604051601f8201601f1916810167ffffffffffffffff811182821017156113f7576113f761151a565b604052919050565b60008219821115611412576114126114d8565b500190565b600060ff821660ff84168060ff03821115611434576114346114d8565b019392505050565b60008261144b5761144b6114ee565b500490565b600081600019048311821515161561146a5761146a6114d8565b500290565b600082821015611481576114816114d8565b500390565b600060ff821660ff8416808210156114a0576114a06114d8565b90039392505050565b60006000198214156114bd576114bd6114d8565b5060010190565b6000826114d3576114d36114ee565b500690565b634e487b7160e01b600052601160045260246000fd5b634e487b7160e01b600052601260045260246000fd5b634e487b7160e01b600052603260045260246000fd5b634e487b7160e01b600052604160045260246000fd5b6001600160a01b0381168114610b4357600080fdfea2646970667358221220c179eae62499ae4b74a2e5360d3a66ab6339cc791bca31f4509a46a3ef7d387564736f6c63430008070033",
  "linkReferences": {},
  "deployedLinkReferences": {}
}