{
  "_format": "hh-sol-artifact-1",
  "contractName": "Snews",
  "sourceName": "src/Snews.sol",
  "abi": [
    {
      "anonymous": false,
      "inputs": [
        {
          "indexed": true,
          "internalType": "address",
          "name": "owner",
          "type": "address"
        },
        {
          "indexed": true,
          "internalType": "address",
          "name": "approved",
          "type": "address"
        },
        {
          "indexed": true,
          "internalType": "uint256",
          "name": "tokenId",
          "type": "uint256"
        }
      ],
      "name": "Approval",
      "type": "event"
    },
    {
      "anonymous": false,
      "inputs": [
        {
          "indexed": true,
          "internalType": "address",
          "name": "owner",
          "type": "address"
        },
        {
          "indexed": true,
          "internalType": "address",
          "name": "operator",
          "type": "address"
        },
        {
          "indexed": false,
          "internalType": "bool",
          "name": "approved",
          "type": "bool"
        }
      ],
      "name": "ApprovalForAll",
      "type": "event"
    },
    {
      "anonymous": false,
      "inputs": [
        {
          "indexed": true,
          "internalType": "uint256",
          "name": "tokenId",
          "type": "uint256"
        },
        {
          "indexed": false,
          "internalType": "address",
          "name": "readerAddress",
          "type": "address"
        },
        {
          "indexed": false,
          "internalType": "uint256",
          "name": "tokenValue",
          "type": "uint256"
        },
        {
          "indexed": false,
          "internalType": "string",
          "name": "transactionId",
          "type": "string"
        }
      ],
      "name": "ClaimToken",
      "type": "event"
    },
    {
      "anonymous": false,
      "inputs": [
        {
          "indexed": true,
          "internalType": "uint256",
          "name": "tokenId",
          "type": "uint256"
        },
        {
          "indexed": true,
          "internalType": "address",
          "name": "ownerAddress",
          "type": "address"
        },
        {
          "indexed": false,
          "internalType": "string",
          "name": "slug",
          "type": "string"
        },
        {
          "indexed": false,
          "internalType": "uint256",
          "name": "totalSupply",
          "type": "uint256"
        },
        {
          "indexed": false,
          "internalType": "uint8",
          "name": "paymentToken",
          "type": "uint8"
        }
      ],
      "name": "CreateNews",
      "type": "event"
    },
    {
      "anonymous": false,
      "inputs": [
        {
          "indexed": false,
          "internalType": "uint8",
          "name": "version",
          "type": "uint8"
        }
      ],
      "name": "Initialized",
      "type": "event"
    },
    {
      "anonymous": false,
      "inputs": [
        {
          "indexed": true,
          "internalType": "address",
          "name": "previousOwner",
          "type": "address"
        },
        {
          "indexed": true,
          "internalType": "address",
          "name": "newOwner",
          "type": "address"
        }
      ],
      "name": "OwnershipTransferred",
      "type": "event"
    },
    {
      "anonymous": false,
      "inputs": [
        {
          "indexed": true,
          "internalType": "bytes32",
          "name": "role",
          "type": "bytes32"
        },
        {
          "indexed": true,
          "internalType": "bytes32",
          "name": "previousAdminRole",
          "type": "bytes32"
        },
        {
          "indexed": true,
          "internalType": "bytes32",
          "name": "newAdminRole",
          "type": "bytes32"
        }
      ],
      "name": "RoleAdminChanged",
      "type": "event"
    },
    {
      "anonymous": false,
      "inputs": [
        {
          "indexed": true,
          "internalType": "bytes32",
          "name": "role",
          "type": "bytes32"
        },
        {
          "indexed": true,
          "internalType": "address",
          "name": "account",
          "type": "address"
        },
        {
          "indexed": true,
          "internalType": "address",
          "name": "sender",
          "type": "address"
        }
      ],
      "name": "RoleGranted",
      "type": "event"
    },
    {
      "anonymous": false,
      "inputs": [
        {
          "indexed": true,
          "internalType": "bytes32",
          "name": "role",
          "type": "bytes32"
        },
        {
          "indexed": true,
          "internalType": "address",
          "name": "account",
          "type": "address"
        },
        {
          "indexed": true,
          "internalType": "address",
          "name": "sender",
          "type": "address"
        }
      ],
      "name": "RoleRevoked",
      "type": "event"
    },
    {
      "anonymous": false,
      "inputs": [
        {
          "indexed": true,
          "internalType": "address",
          "name": "from",
          "type": "address"
        },
        {
          "indexed": true,
          "internalType": "address",
          "name": "to",
          "type": "address"
        },
        {
          "indexed": true,
          "internalType": "uint256",
          "name": "tokenId",
          "type": "uint256"
        }
      ],
      "name": "Transfer",
      "type": "event"
    },
    {
      "inputs": [],
      "name": "DEFAULT_ADMIN_ROLE",
      "outputs": [
        {
          "internalType": "bytes32",
          "name": "",
          "type": "bytes32"
        }
      ],
      "stateMutability": "view",
      "type": "function"
    },
    {
      "inputs": [],
      "name": "WRITER_ROLE",
      "outputs": [
        {
          "internalType": "bytes32",
          "name": "",
          "type": "bytes32"
        }
      ],
      "stateMutability": "view",
      "type": "function"
    },
    {
      "inputs": [
        {
          "internalType": "address",
          "name": "_resolver",
          "type": "address"
        },
        {
          "internalType": "string",
          "name": "_version",
          "type": "string"
        }
      ],
      "name": "__Snews_init",
      "outputs": [],
      "stateMutability": "nonpayable",
      "type": "function"
    },
    {
      "inputs": [
        {
          "internalType": "address",
          "name": "to",
          "type": "address"
        },
        {
          "internalType": "uint256",
          "name": "tokenId",
          "type": "uint256"
        }
      ],
      "name": "approve",
      "outputs": [],
      "stateMutability": "nonpayable",
      "type": "function"
    },
    {
      "inputs": [
        {
          "internalType": "address",
          "name": "account",
          "type": "address"
        }
      ],
      "name": "approveWriterRole",
      "outputs": [],
      "stateMutability": "nonpayable",
      "type": "function"
    },
    {
      "inputs": [
        {
          "internalType": "address",
          "name": "owner",
          "type": "address"
        }
      ],
      "name": "balanceOf",
      "outputs": [
        {
          "internalType": "uint256",
          "name": "",
          "type": "uint256"
        }
      ],
      "stateMutability": "view",
      "type": "function"
    },
    {
      "inputs": [
        {
          "internalType": "string",
          "name": "slug",
          "type": "string"
        },
        {
          "internalType": "string",
          "name": "transactionId",
          "type": "string"
        },
        {
          "components": [
            {
              "internalType": "uint256",
              "name": "deadline",
              "type": "uint256"
            },
            {
              "internalType": "uint8",
              "name": "v",
              "type": "uint8"
            },
            {
              "internalType": "bytes32",
              "name": "r",
              "type": "bytes32"
            },
            {
              "internalType": "bytes32",
              "name": "s",
              "type": "bytes32"
            }
          ],
          "internalType": "struct ISnews.EIP712Signature",
          "name": "_signature",
          "type": "tuple"
        }
      ],
      "name": "claimToken",
      "outputs": [],
      "stateMutability": "nonpayable",
      "type": "function"
    },
    {
      "inputs": [
        {
          "internalType": "string",
          "name": "slug",
          "type": "string"
        },
        {
          "internalType": "uint8",
          "name": "_pt",
          "type": "uint8"
        },
        {
          "internalType": "uint256",
          "name": "totalSupply",
          "type": "uint256"
        }
      ],
      "name": "createNews",
      "outputs": [],
      "stateMutability": "nonpayable",
      "type": "function"
    },
    {
      "inputs": [
        {
          "internalType": "uint256",
          "name": "tokenId",
          "type": "uint256"
        }
      ],
      "name": "getApproved",
      "outputs": [
        {
          "internalType": "address",
          "name": "",
          "type": "address"
        }
      ],
      "stateMutability": "view",
      "type": "function"
    },
    {
      "inputs": [
        {
          "internalType": "bytes32",
          "name": "role",
          "type": "bytes32"
        }
      ],
      "name": "getRoleAdmin",
      "outputs": [
        {
          "internalType": "bytes32",
          "name": "",
          "type": "bytes32"
        }
      ],
      "stateMutability": "view",
      "type": "function"
    },
    {
      "inputs": [
        {
          "internalType": "bytes32",
          "name": "role",
          "type": "bytes32"
        },
        {
          "internalType": "address",
          "name": "account",
          "type": "address"
        }
      ],
      "name": "grantRole",
      "outputs": [],
      "stateMutability": "nonpayable",
      "type": "function"
    },
    {
      "inputs": [
        {
          "internalType": "bytes32",
          "name": "role",
          "type": "bytes32"
        },
        {
          "internalType": "address",
          "name": "account",
          "type": "address"
        }
      ],
      "name": "hasRole",
      "outputs": [
        {
          "internalType": "bool",
          "name": "",
          "type": "bool"
        }
      ],
      "stateMutability": "view",
      "type": "function"
    },
    {
      "inputs": [
        {
          "internalType": "address",
          "name": "owner",
          "type": "address"
        },
        {
          "internalType": "address",
          "name": "operator",
          "type": "address"
        }
      ],
      "name": "isApprovedForAll",
      "outputs": [
        {
          "internalType": "bool",
          "name": "",
          "type": "bool"
        }
      ],
      "stateMutability": "view",
      "type": "function"
    },
    {
      "inputs": [],
      "name": "name",
      "outputs": [
        {
          "internalType": "string",
          "name": "",
          "type": "string"
        }
      ],
      "stateMutability": "view",
      "type": "function"
    },
    {
      "inputs": [
        {
          "internalType": "bytes32",
          "name": "",
          "type": "bytes32"
        }
      ],
      "name": "newsFund",
      "outputs": [
        {
          "internalType": "uint256",
          "name": "",
          "type": "uint256"
        }
      ],
      "stateMutability": "view",
      "type": "function"
    },
    {
      "inputs": [
        {
          "internalType": "bytes32",
          "name": "",
          "type": "bytes32"
        }
      ],
      "name": "newsStorage",
      "outputs": [
        {
          "internalType": "uint256",
          "name": "tokenId",
          "type": "uint256"
        },
        {
          "internalType": "string",
          "name": "slug",
          "type": "string"
        },
        {
          "internalType": "uint256",
          "name": "totalSupply",
          "type": "uint256"
        },
        {
          "internalType": "address",
          "name": "owner",
          "type": "address"
        },
        {
          "internalType": "uint8",
          "name": "paymentToken",
          "type": "uint8"
        }
      ],
      "stateMutability": "view",
      "type": "function"
    },
    {
      "inputs": [
        {
          "internalType": "address",
          "name": "",
          "type": "address"
        },
        {
          "internalType": "address",
          "name": "",
          "type": "address"
        },
        {
          "internalType": "uint256",
          "name": "",
          "type": "uint256"
        },
        {
          "internalType": "bytes",
          "name": "",
          "type": "bytes"
        }
      ],
      "name": "onERC721Received",
      "outputs": [
        {
          "internalType": "bytes4",
          "name": "",
          "type": "bytes4"
        }
      ],
      "stateMutability": "nonpayable",
      "type": "function"
    },
    {
      "inputs": [],
      "name": "owner",
      "outputs": [
        {
          "internalType": "address",
          "name": "",
          "type": "address"
        }
      ],
      "stateMutability": "view",
      "type": "function"
    },
    {
      "inputs": [
        {
          "internalType": "uint256",
          "name": "tokenId",
          "type": "uint256"
        }
      ],
      "name": "ownerOf",
      "outputs": [
        {
          "internalType": "address",
          "name": "",
          "type": "address"
        }
      ],
      "stateMutability": "view",
      "type": "function"
    },
    {
      "inputs": [],
      "name": "renounceOwnership",
      "outputs": [],
      "stateMutability": "nonpayable",
      "type": "function"
    },
    {
      "inputs": [
        {
          "internalType": "bytes32",
          "name": "role",
          "type": "bytes32"
        },
        {
          "internalType": "address",
          "name": "account",
          "type": "address"
        }
      ],
      "name": "renounceRole",
      "outputs": [],
      "stateMutability": "nonpayable",
      "type": "function"
    },
    {
      "inputs": [],
      "name": "resolver",
      "outputs": [
        {
          "internalType": "contract IResolver",
          "name": "",
          "type": "address"
        }
      ],
      "stateMutability": "view",
      "type": "function"
    },
    {
      "inputs": [
        {
          "internalType": "bytes32",
          "name": "role",
          "type": "bytes32"
        },
        {
          "internalType": "address",
          "name": "account",
          "type": "address"
        }
      ],
      "name": "revokeRole",
      "outputs": [],
      "stateMutability": "nonpayable",
      "type": "function"
    },
    {
      "inputs": [
        {
          "internalType": "address",
          "name": "from",
          "type": "address"
        },
        {
          "internalType": "address",
          "name": "to",
          "type": "address"
        },
        {
          "internalType": "uint256",
          "name": "tokenId",
          "type": "uint256"
        }
      ],
      "name": "safeTransferFrom",
      "outputs": [],
      "stateMutability": "nonpayable",
      "type": "function"
    },
    {
      "inputs": [
        {
          "internalType": "address",
          "name": "from",
          "type": "address"
        },
        {
          "internalType": "address",
          "name": "to",
          "type": "address"
        },
        {
          "internalType": "uint256",
          "name": "tokenId",
          "type": "uint256"
        },
        {
          "internalType": "bytes",
          "name": "data",
          "type": "bytes"
        }
      ],
      "name": "safeTransferFrom",
      "outputs": [],
      "stateMutability": "nonpayable",
      "type": "function"
    },
    {
      "inputs": [
        {
          "internalType": "address",
          "name": "operator",
          "type": "address"
        },
        {
          "internalType": "bool",
          "name": "approved",
          "type": "bool"
        }
      ],
      "name": "setApprovalForAll",
      "outputs": [],
      "stateMutability": "nonpayable",
      "type": "function"
    },
    {
      "inputs": [
        {
          "internalType": "address",
          "name": "_signer",
          "type": "address"
        }
      ],
      "name": "setSigner",
      "outputs": [],
      "stateMutability": "nonpayable",
      "type": "function"
    },
    {
      "inputs": [
        {
          "internalType": "string",
          "name": "",
          "type": "string"
        }
      ],
      "name": "slugStorage",
      "outputs": [
        {
          "internalType": "bool",
          "name": "",
          "type": "bool"
        }
      ],
      "stateMutability": "view",
      "type": "function"
    },
    {
      "inputs": [
        {
          "internalType": "bytes4",
          "name": "interfaceId",
          "type": "bytes4"
        }
      ],
      "name": "supportsInterface",
      "outputs": [
        {
          "internalType": "bool",
          "name": "",
          "type": "bool"
        }
      ],
      "stateMutability": "view",
      "type": "function"
    },
    {
      "inputs": [],
      "name": "symbol",
      "outputs": [
        {
          "internalType": "string",
          "name": "",
          "type": "string"
        }
      ],
      "stateMutability": "view",
      "type": "function"
    },
    {
      "inputs": [
        {
          "internalType": "uint256",
          "name": "tokenId",
          "type": "uint256"
        }
      ],
      "name": "tokenURI",
      "outputs": [
        {
          "internalType": "string",
          "name": "",
          "type": "string"
        }
      ],
      "stateMutability": "view",
      "type": "function"
    },
    {
      "inputs": [
        {
          "internalType": "address",
          "name": "",
          "type": "address"
        }
      ],
      "name": "tokenWithDrawalNonces",
      "outputs": [
        {
          "internalType": "uint256",
          "name": "",
          "type": "uint256"
        }
      ],
      "stateMutability": "view",
      "type": "function"
    },
    {
      "inputs": [
        {
          "internalType": "address",
          "name": "from",
          "type": "address"
        },
        {
          "internalType": "address",
          "name": "to",
          "type": "address"
        },
        {
          "internalType": "uint256",
          "name": "tokenId",
          "type": "uint256"
        }
      ],
      "name": "transferFrom",
      "outputs": [],
      "stateMutability": "nonpayable",
      "type": "function"
    },
    {
      "inputs": [
        {
          "internalType": "address",
          "name": "newOwner",
          "type": "address"
        }
      ],
      "name": "transferOwnership",
      "outputs": [],
      "stateMutability": "nonpayable",
      "type": "function"
    },
    {
      "inputs": [
        {
          "internalType": "address",
          "name": "",
          "type": "address"
        },
        {
          "internalType": "uint256",
          "name": "",
          "type": "uint256"
        }
      ],
      "name": "userClaimNews",
      "outputs": [
        {
          "internalType": "bool",
          "name": "",
          "type": "bool"
        }
      ],
      "stateMutability": "view",
      "type": "function"
    },
    {
      "inputs": [],
      "name": "version",
      "outputs": [
        {
          "internalType": "string",
          "name": "",
          "type": "string"
        }
      ],
      "stateMutability": "view",
      "type": "function"
    }
  ],
  "bytecode": "0x608060405234801561001057600080fd5b50613a2d806100206000396000f3fe608060405234801561001057600080fd5b506004361061025c5760003560e01c806370a0823111610145578063a22cb465116100bd578063c87b56dd1161008c578063d547741f11610071578063d547741f146105b0578063e985e9c5146105c3578063f2fde38b146105ff57600080fd5b8063c87b56dd1461058a578063cf0156461461059d57600080fd5b8063a22cb46514610506578063af58ea7214610519578063b4fa9b9c14610548578063b88d4fde1461057757600080fd5b806391d14854116101145780639beaab7b116100f95780639beaab7b146104b65780639e888ca3146104dd578063a217fddf146104fe57600080fd5b806391d148541461047457806395d89b41146104ae57600080fd5b806370a0823114610435578063715018a6146104485780638d16c033146104505780638da5cb5b1461046357600080fd5b8063248a9ca3116101d857806344e5b590116101a757806354fd4d501161018c57806354fd4d50146104075780636352211e1461040f5780636c19e7831461042257600080fd5b806344e5b590146103d35780634c44d0df146103e657600080fd5b8063248a9ca3146103685780632f2ff15d1461039a57806336568abe146103ad57806342842e0e146103c057600080fd5b8063081812fc1161022f578063098fab7911610214578063098fab7914610316578063150b7a021461032957806323b872dd1461035557600080fd5b8063081812fc146102ee578063095ea7b31461030157600080fd5b806301ffc9a71461026157806303c9f7d21461028957806304f3bcec146102ad57806306fdde03146102d9575b600080fd5b61027461026f36600461312d565b610612565b60405190151581526020015b60405180910390f35b61029c61029736600461314a565b610656565b6040516102809594939291906131b3565b61015f546102c1906001600160a01b031681565b6040516001600160a01b039091168152602001610280565b6102e161071d565b60405161028091906131f5565b6102c16102fc36600461314a565b6107af565b61031461030f36600461321d565b6107d6565b005b6103146103243660046132f5565b61090c565b61033c6103373660046133a7565b610dae565b6040516001600160e01b03199091168152602001610280565b610314610363366004613427565b610dbf565b61038c61037636600461314a565b600090815261012d602052604090206001015490565b604051908152602001610280565b6103146103a8366004613468565b610e36565b6103146103bb366004613468565b610e5c565b6103146103ce366004613427565b610ee8565b6103146103e13660046134ae565b610f03565b61038c6103f436600461314a565b6101646020526000908152604090205481565b6102e161122b565b6102c161041d36600461314a565b6112ba565b610314610430366004613505565b61131f565b61038c610443366004613505565b61134a565b6103146113e4565b61031461045e366004613522565b6113f8565b60fb546001600160a01b03166102c1565b610274610482366004613468565b600091825261012d602090815260408084206001600160a01b0393909316845291905290205460ff1690565b6102e16115ed565b61038c7f2b8f168f361ac1393a163ed4adfa899a87be7b7c71645167bdaddd822ae453c881565b61038c6104eb366004613505565b6101676020526000908152604090205481565b61038c600081565b610314610514366004613580565b6115fc565b61027461052736600461321d565b61016660209081526000928352604080842090915290825290205460ff1681565b6102746105563660046135ae565b80516020818301810180516101658252928201919093012091525460ff1681565b6103146105853660046133a7565b611607565b6102e161059836600461314a565b61167f565b6103146105ab366004613505565b6116f3565b6103146105be366004613468565b61173a565b6102746105d13660046135e3565b6001600160a01b039182166000908152606a6020908152604080832093909416825291909152205460ff1690565b61031461060d366004613505565b611760565b60006001600160e01b031982167f826b48af0000000000000000000000000000000000000000000000000000000014806106505750610650826117ed565b92915050565b610163602052600090815260409020805460018201805491929161067990613611565b80601f01602080910402602001604051908101604052809291908181526020018280546106a590613611565b80156106f25780601f106106c7576101008083540402835291602001916106f2565b820191906000526020600020905b8154815290600101906020018083116106d557829003601f168201915b5050505060028301546003909301549192916001600160a01b0381169150600160a01b900460ff1685565b60606065805461072c90613611565b80601f016020809104026020016040519081016040528092919081815260200182805461075890613611565b80156107a55780601f1061077a576101008083540402835291602001916107a5565b820191906000526020600020905b81548152906001019060200180831161078857829003601f168201915b5050505050905090565b60006107ba8261182b565b506000908152606960205260409020546001600160a01b031690565b60006107e1826112ba565b9050806001600160a01b0316836001600160a01b03160361086f5760405162461bcd60e51b815260206004820152602160248201527f4552433732313a20617070726f76616c20746f2063757272656e74206f776e6560448201527f720000000000000000000000000000000000000000000000000000000000000060648201526084015b60405180910390fd5b336001600160a01b038216148061088b575061088b81336105d1565b6108fd5760405162461bcd60e51b815260206004820152603d60248201527f4552433732313a20617070726f76652063616c6c6572206973206e6f7420746f60448201527f6b656e206f776e6572206f7220617070726f76656420666f7220616c6c0000006064820152608401610866565b610907838361188f565b505050565b6109146118fd565b600061016360008660405160200161092c919061364b565b6040516020818303038152906040528051906020012081526020019081526020016000206040518060a00160405290816000820154815260200160018201805461097590613611565b80601f01602080910402602001604051908101604052809291908181526020018280546109a190613611565b80156109ee5780601f106109c3576101008083540402835291602001916109ee565b820191906000526020600020905b8154815290600101906020018083116109d157829003601f168201915b5050509183525050600282015460208201526003909101546001600160a01b0381166040830152600160a01b900460ff1660609091015290506101666000336001600160a01b03168152602080820192909252604090810160009081208451825290925290205460ff1615610aa55760405162461bcd60e51b815260206004820152601b60248201527f757365722068617320636c61696d65642074686973206e6577732100000000006044820152606401610866565b8060400151600003610af95760405162461bcd60e51b815260206004820152601560248201527f546865204e6577732063616e277420636c61696d2100000000000000000000006044820152606401610866565b600061016254610ba0610b093390565b845133600090815261016760205260408120805491610b278361367d565b919050558660400151604080517f4ab9f47577b0d80b441d9853bbf45ed6808d8e582b31c5c530b6b5503608b79c6020808301919091526001600160a01b0396909616818301526060810194909452608084019290925260a0808401919091528151808403909101815260c09092019052805191012090565b6040517f19010000000000000000000000000000000000000000000000000000000000006020820152602281019290925260428201526062016040516020818303038152906040528051906020012090506000600182856020016020810190610c099190613696565b6040805160008152602081018083529390935260ff90911682820152860135606080830191909152860135608082015260a0016020604051602081039080840390855afa158015610c5e573d6000803e3d6000fd5b5050604051601f190151610160549092506001600160a01b038084169116149050610ccb5760405162461bcd60e51b815260206004820152601160248201527f5369676e617475726520696e76616c69640000000000000000000000000000006044820152606401610866565b610d513360408581015161015f546080880151925163c6ee427f60e01b815260ff909316600484015290916001600160a01b039091169063c6ee427f90602401602060405180830381865afa158015610d28573d6000803e3d6000fd5b505050506040513d601f19601f82011682018060405250810190610d4c91906136b1565b611956565b82517fb0bb310ecca5c5a1e4e71d2f7db06fde0dee835f67892df86942b5b9ac10eeae3385604001518989604051610d8c94939291906136ce565b60405180910390a250506000604090910152610da8600160c955565b50505050565b630a85bd0160e11b5b949350505050565b610dc93382611a1b565b610e2b5760405162461bcd60e51b815260206004820152602d60248201527f4552433732313a2063616c6c6572206973206e6f7420746f6b656e206f776e6560448201526c1c881bdc88185c1c1c9bdd9959609a1b6064820152608401610866565b610907838383611a99565b600082815261012d6020526040902060010154610e5281611c9f565b6109078383611ca9565b6001600160a01b0381163314610eda5760405162461bcd60e51b815260206004820152602f60248201527f416363657373436f6e74726f6c3a2063616e206f6e6c792072656e6f756e636560448201527f20726f6c657320666f722073656c6600000000000000000000000000000000006064820152608401610866565b610ee48282611d4d565b5050565b61090783838360405180602001604052806000815250611607565b610f0b6118fd565b7f2b8f168f361ac1393a163ed4adfa899a87be7b7c71645167bdaddd822ae453c8610f3581611c9f565b61016584604051610f46919061364b565b9081526040519081900360200190205460ff1615610fcc5760405162461bcd60e51b815260206004820152602260248201527f54686520536c7567207761732075736564206279206f746865722070656f706c60448201527f65210000000000000000000000000000000000000000000000000000000000006064820152608401610866565b811561108d5761015f5460405163c6ee427f60e01b815260ff8516600482015261104d9184916001600160a01b039091169063c6ee427f90602401602060405180830381865afa158015611024573d6000803e3d6000fd5b505050506040513d601f19601f8201168201806040525081019061104891906136b1565b611dd2565b81610164600086604051602001611064919061364b565b604051602081830303815290604052805190602001208152602001908152602001600020819055505b60006110996101615490565b90506040518060a001604052808281526020018681526020018481526020016110bf3390565b6001600160a01b031681526020018560ff168152506101636000876040516020016110ea919061364b565b60408051601f1981840301815291815281516020928301208352828201939093529101600020825181559082015160018201906111279082613762565b50604082810151600283015560608301516003909201805460809094015160ff16600160a01b027fffffffffffffffffffffff0000000000000000000000000000000000000000009094166001600160a01b0390931692909217929092179055516001906101659061119a90889061364b565b908152604051908190036020019020805491151560ff199092169190911790556111ca6111c43390565b82612063565b6111d961016180546001019055565b336001600160a01b0316817f018d1a020dcf99e6f9d178c75e91cadea0a900e747d472f6d93fd116e14d7b0087868860405161121793929190613822565b60405180910390a35050610907600160c955565b610168805461123990613611565b80601f016020809104026020016040519081016040528092919081815260200182805461126590613611565b80156112b25780601f10611287576101008083540402835291602001916112b2565b820191906000526020600020905b81548152906001019060200180831161129557829003601f168201915b505050505081565b6000818152606760205260408120546001600160a01b0316806106505760405162461bcd60e51b815260206004820152601860248201527f4552433732313a20696e76616c696420746f6b656e20494400000000000000006044820152606401610866565b61132761207d565b61016080546001600160a01b0319166001600160a01b0392909216919091179055565b60006001600160a01b0382166113c85760405162461bcd60e51b815260206004820152602960248201527f4552433732313a2061646472657373207a65726f206973206e6f74206120766160448201527f6c6964206f776e657200000000000000000000000000000000000000000000006064820152608401610866565b506001600160a01b031660009081526068602052604090205490565b6113ec61207d565b6113f660006120d7565b565b600054610100900460ff16158080156114185750600054600160ff909116105b806114325750303b158015611432575060005460ff166001145b6114a45760405162461bcd60e51b815260206004820152602e60248201527f496e697469616c697a61626c653a20636f6e747261637420697320616c72656160448201527f647920696e697469616c697a65640000000000000000000000000000000000006064820152608401610866565b6000805460ff1916600117905580156114c7576000805461ff0019166101001790555b61153b6040518060400160405280600d81526020017f4e657773206f6620536e657773000000000000000000000000000000000000008152506040518060400160405280600381526020017f534e530000000000000000000000000000000000000000000000000000000000815250612129565b61154361219e565b61156d7f2b8f168f361ac1393a163ed4adfa899a87be7b7c71645167bdaddd822ae453c833612211565b61157561221b565b6101625561015f80546001600160a01b0319166001600160a01b0385161790556101686115a28382613762565b508015610907576000805461ff0019169055604051600181527f7f26b83ff96e1f2b6a682f133852f6798a09c465da95921460cefb38474024989060200160405180910390a1505050565b60606066805461072c90613611565b610ee433838361237b565b6116113383611a1b565b6116735760405162461bcd60e51b815260206004820152602d60248201527f4552433732313a2063616c6c6572206973206e6f7420746f6b656e206f776e6560448201526c1c881bdc88185c1c1c9bdd9959609a1b6064820152608401610866565b610da884848484612449565b606061168a8261182b565b60006116a160408051602081019091526000815290565b905060008151116116c157604051806020016040528060008152506116ec565b806116cb846124c7565b6040516020016116dc92919061384e565b6040516020818303038152906040525b9392505050565b6116fb61207d565b6117036118fd565b61172d7f2b8f168f361ac1393a163ed4adfa899a87be7b7c71645167bdaddd822ae453c882612211565b611737600160c955565b50565b600082815261012d602052604090206001015461175681611c9f565b6109078383611d4d565b61176861207d565b6001600160a01b0381166117e45760405162461bcd60e51b815260206004820152602660248201527f4f776e61626c653a206e6577206f776e657220697320746865207a65726f206160448201527f64647265737300000000000000000000000000000000000000000000000000006064820152608401610866565b611737816120d7565b60006001600160e01b031982167f7965db0b000000000000000000000000000000000000000000000000000000001480610650575061065082612567565b6000818152606760205260409020546001600160a01b03166117375760405162461bcd60e51b815260206004820152601860248201527f4552433732313a20696e76616c696420746f6b656e20494400000000000000006044820152606401610866565b600081815260696020526040902080546001600160a01b0319166001600160a01b03841690811790915581906118c4826112ba565b6001600160a01b03167f8c5be1e5ebec7d5bd14f71427d1e84f3dd0314c0f7b2291e5b200ac8c7c3b92560405160405180910390a45050565b600260c9540361194f5760405162461bcd60e51b815260206004820152601f60248201527f5265656e7472616e637947756172643a207265656e7472616e742063616c6c006044820152606401610866565b600260c955565b6001600160a01b038116611a07576000836001600160a01b03168360405160006040518083038185875af1925050503d80600081146119b1576040519150601f19603f3d011682016040523d82523d6000602084013e6119b6565b606091505b5050905080610da85760405162461bcd60e51b815260206004820152601a60248201527f5472616e73666572206661696c65643a20676173206572726f720000000000006044820152606401610866565b6109076001600160a01b0382168484612602565b600080611a27836112ba565b9050806001600160a01b0316846001600160a01b03161480611a6e57506001600160a01b038082166000908152606a602090815260408083209388168352929052205460ff165b80610db75750836001600160a01b0316611a87846107af565b6001600160a01b031614949350505050565b826001600160a01b0316611aac826112ba565b6001600160a01b031614611b105760405162461bcd60e51b815260206004820152602560248201527f4552433732313a207472616e736665722066726f6d20696e636f72726563742060448201526437bbb732b960d91b6064820152608401610866565b6001600160a01b038216611b8b5760405162461bcd60e51b8152602060048201526024808201527f4552433732313a207472616e7366657220746f20746865207a65726f2061646460448201527f72657373000000000000000000000000000000000000000000000000000000006064820152608401610866565b611b988383836001612693565b826001600160a01b0316611bab826112ba565b6001600160a01b031614611c0f5760405162461bcd60e51b815260206004820152602560248201527f4552433732313a207472616e736665722066726f6d20696e636f72726563742060448201526437bbb732b960d91b6064820152608401610866565b600081815260696020908152604080832080546001600160a01b03199081169091556001600160a01b0387811680865260688552838620805460001901905590871680865283862080546001019055868652606790945282852080549092168417909155905184937fddf252ad1be2c89b69c2b068fc378daa952ba7f163c4a11628f55a4df523b3ef91a4505050565b611737813361271b565b600082815261012d602090815260408083206001600160a01b038516845290915290205460ff16610ee457600082815261012d602090815260408083206001600160a01b03851684529091529020805460ff19166001179055611d093390565b6001600160a01b0316816001600160a01b0316837f2f8788117e7eff1d82e926ec794901d17c78024a50270940304540a733656f0d60405160405180910390a45050565b600082815261012d602090815260408083206001600160a01b038516845290915290205460ff1615610ee457600082815261012d602090815260408083206001600160a01b0385168085529252808320805460ff1916905551339285917ff6391f5c32d9c69d2a47ea670b442974b53935d1edc7fd64eb21e047a839171b9190a45050565b6001600160a01b038116611eed57813414611e555760405162461bcd60e51b815260206004820152603260248201527f53656e7420424e422056616c756520646f6573206e6f74206d6174636820737060448201527f656369666965642062696420616d6f756e7400000000000000000000000000006064820152608401610866565b604051600090309034908381818185875af1925050503d8060008114611e97576040519150601f19603f3d011682016040523d82523d6000602084013e611e9c565b606091505b50509050806109075760405162461bcd60e51b815260206004820152601a60248201527f5472616e73666572206661696c65643a20676173206572726f720000000000006044820152606401610866565b6040516370a0823160e01b815230600482015281906000906001600160a01b038316906370a0823190602401602060405180830381865afa158015611f36573d6000803e3d6000fd5b505050506040513d601f19601f82011682018060405250810190611f5a919061387d565b9050611f716001600160a01b038316333087612791565b6040516370a0823160e01b81523060048201526000906001600160a01b038416906370a0823190602401602060405180830381865afa158015611fb8573d6000803e3d6000fd5b505050506040513d601f19601f82011682018060405250810190611fdc919061387d565b905080611fe98684613896565b1461205c5760405162461bcd60e51b815260206004820152603460248201527f546f6b656e207472616e736665722063616c6c20646964206e6f74207472616e60448201527f7366657220657870656374656420616d6f756e740000000000000000000000006064820152608401610866565b5050505050565b610ee48282604051806020016040528060008152506127e2565b60fb546001600160a01b031633146113f65760405162461bcd60e51b815260206004820181905260248201527f4f776e61626c653a2063616c6c6572206973206e6f7420746865206f776e65726044820152606401610866565b60fb80546001600160a01b038381166001600160a01b0319831681179093556040519116919082907f8be0079c531659141344cd1fd0a4f28419497f9722a3daafe3b4186f6b6457e090600090a35050565b600054610100900460ff166121945760405162461bcd60e51b815260206004820152602b60248201527f496e697469616c697a61626c653a20636f6e7472616374206973206e6f74206960448201526a6e697469616c697a696e6760a81b6064820152608401610866565b610ee48282612860565b600054610100900460ff166122095760405162461bcd60e51b815260206004820152602b60248201527f496e697469616c697a61626c653a20636f6e7472616374206973206e6f74206960448201526a6e697469616c697a696e6760a81b6064820152608401610866565b6113f66128e4565b610ee48282611ca9565b600061237660405180606001604052806040518060400160405280600581526020017f534e6577730000000000000000000000000000000000000000000000000000008152508152602001610168805461227490613611565b80601f01602080910402602001604051908101604052809291908181526020018280546122a090613611565b80156122ed5780601f106122c2576101008083540402835291602001916122ed565b820191906000526020600020905b8154815290600101906020018083116122d057829003601f168201915b50505091835250503060209182015281518051908201208282015180519083012060409384015184517f91ab3d17e3a50a9d89e63fd30b92be7f5336b03b287bb946787a83a9d62a2766818601528086019390935260608301919091526001600160a01b03166080808301919091528351808303909101815260a0909101909252815191012090565b905090565b816001600160a01b0316836001600160a01b0316036123dc5760405162461bcd60e51b815260206004820152601960248201527f4552433732313a20617070726f766520746f2063616c6c6572000000000000006044820152606401610866565b6001600160a01b038381166000818152606a6020908152604080832094871680845294825291829020805460ff191686151590811790915591519182527f17307eab39ab6107e8899845ad3d59bd9653f200f220920489ca2b5937696c31910160405180910390a3505050565b612454848484611a99565b61246084848484612958565b610da85760405162461bcd60e51b815260206004820152603260248201527f4552433732313a207472616e7366657220746f206e6f6e20455243373231526560448201527131b2b4bb32b91034b6b83632b6b2b73a32b960711b6064820152608401610866565b606060006124d483612aa1565b600101905060008167ffffffffffffffff8111156124f4576124f4613249565b6040519080825280601f01601f19166020018201604052801561251e576020820181803683370190505b5090508181016020015b600019017f3031323334353637383961626364656600000000000000000000000000000000600a86061a8153600a850494508461252857509392505050565b60006001600160e01b031982167f80ac58cd0000000000000000000000000000000000000000000000000000000014806125ca57506001600160e01b031982167f5b5e139f00000000000000000000000000000000000000000000000000000000145b8061065057507f01ffc9a7000000000000000000000000000000000000000000000000000000006001600160e01b0319831614610650565b6040516001600160a01b0383166024820152604481018290526109079084907fa9059cbb00000000000000000000000000000000000000000000000000000000906064015b60408051601f198184030181529190526020810180517bffffffffffffffffffffffffffffffffffffffffffffffffffffffff166001600160e01b031990931692909217909152612b83565b6001811115610da8576001600160a01b038416156126d9576001600160a01b038416600090815260686020526040812080548392906126d39084906138a9565b90915550505b6001600160a01b03831615610da8576001600160a01b03831660009081526068602052604081208054839290612710908490613896565b909155505050505050565b600082815261012d602090815260408083206001600160a01b038516845290915290205460ff16610ee45761274f81612c68565b61275a836020612c7a565b60405160200161276b9291906138bc565b60408051601f198184030181529082905262461bcd60e51b8252610866916004016131f5565b6040516001600160a01b0380851660248301528316604482015260648101829052610da89085907f23b872dd0000000000000000000000000000000000000000000000000000000090608401612647565b6127ec8383612e5b565b6127f96000848484612958565b6109075760405162461bcd60e51b815260206004820152603260248201527f4552433732313a207472616e7366657220746f206e6f6e20455243373231526560448201527131b2b4bb32b91034b6b83632b6b2b73a32b960711b6064820152608401610866565b600054610100900460ff166128cb5760405162461bcd60e51b815260206004820152602b60248201527f496e697469616c697a61626c653a20636f6e7472616374206973206e6f74206960448201526a6e697469616c697a696e6760a81b6064820152608401610866565b60656128d78382613762565b5060666109078282613762565b600054610100900460ff1661294f5760405162461bcd60e51b815260206004820152602b60248201527f496e697469616c697a61626c653a20636f6e7472616374206973206e6f74206960448201526a6e697469616c697a696e6760a81b6064820152608401610866565b6113f6336120d7565b60006001600160a01b0384163b15612a9957604051630a85bd0160e11b81526001600160a01b0385169063150b7a029061299c90339089908890889060040161393d565b6020604051808303816000875af19250505080156129d7575060408051601f3d908101601f191682019092526129d491810190613979565b60015b612a7f573d808015612a05576040519150601f19603f3d011682016040523d82523d6000602084013e612a0a565b606091505b508051600003612a775760405162461bcd60e51b815260206004820152603260248201527f4552433732313a207472616e7366657220746f206e6f6e20455243373231526560448201527131b2b4bb32b91034b6b83632b6b2b73a32b960711b6064820152608401610866565b805181602001fd5b6001600160e01b031916630a85bd0160e11b149050610db7565b506001610db7565b6000807a184f03e93ff9f4daa797ed6e38ed64bf6a1f0100000000000000008310612aea577a184f03e93ff9f4daa797ed6e38ed64bf6a1f010000000000000000830492506040015b6d04ee2d6d415b85acef81000000008310612b16576d04ee2d6d415b85acef8100000000830492506020015b662386f26fc100008310612b3457662386f26fc10000830492506010015b6305f5e1008310612b4c576305f5e100830492506008015b6127108310612b6057612710830492506004015b60648310612b72576064830492506002015b600a83106106505760010192915050565b6000612bd8826040518060400160405280602081526020017f5361666545524332303a206c6f772d6c6576656c2063616c6c206661696c6564815250856001600160a01b0316612ff49092919063ffffffff16565b8051909150156109075780806020019051810190612bf69190613996565b6109075760405162461bcd60e51b815260206004820152602a60248201527f5361666545524332303a204552433230206f7065726174696f6e20646964206e60448201527f6f742073756363656564000000000000000000000000000000000000000000006064820152608401610866565b60606106506001600160a01b03831660145b60606000612c898360026139b3565b612c94906002613896565b67ffffffffffffffff811115612cac57612cac613249565b6040519080825280601f01601f191660200182016040528015612cd6576020820181803683370190505b5090507f300000000000000000000000000000000000000000000000000000000000000081600081518110612d0d57612d0d6139ca565b60200101906001600160f81b031916908160001a9053507f780000000000000000000000000000000000000000000000000000000000000081600181518110612d5857612d586139ca565b60200101906001600160f81b031916908160001a9053506000612d7c8460026139b3565b612d87906001613896565b90505b6001811115612e0c577f303132333435363738396162636465660000000000000000000000000000000085600f1660108110612dc857612dc86139ca565b1a60f81b828281518110612dde57612dde6139ca565b60200101906001600160f81b031916908160001a90535060049490941c93612e05816139e0565b9050612d8a565b5083156116ec5760405162461bcd60e51b815260206004820181905260248201527f537472696e67733a20686578206c656e67746820696e73756666696369656e746044820152606401610866565b6001600160a01b038216612eb15760405162461bcd60e51b815260206004820181905260248201527f4552433732313a206d696e7420746f20746865207a65726f20616464726573736044820152606401610866565b6000818152606760205260409020546001600160a01b031615612f165760405162461bcd60e51b815260206004820152601c60248201527f4552433732313a20746f6b656e20616c7265616479206d696e746564000000006044820152606401610866565b612f24600083836001612693565b6000818152606760205260409020546001600160a01b031615612f895760405162461bcd60e51b815260206004820152601c60248201527f4552433732313a20746f6b656e20616c7265616479206d696e746564000000006044820152606401610866565b6001600160a01b038216600081815260686020908152604080832080546001019055848352606790915280822080546001600160a01b0319168417905551839291907fddf252ad1be2c89b69c2b068fc378daa952ba7f163c4a11628f55a4df523b3ef908290a45050565b6060610db7848460008585600080866001600160a01b0316858760405161301b919061364b565b60006040518083038185875af1925050503d8060008114613058576040519150601f19603f3d011682016040523d82523d6000602084013e61305d565b606091505b509150915061306e87838387613079565b979650505050505050565b606083156130e85782516000036130e1576001600160a01b0385163b6130e15760405162461bcd60e51b815260206004820152601d60248201527f416464726573733a2063616c6c20746f206e6f6e2d636f6e74726163740000006044820152606401610866565b5081610db7565b610db783838151156130fd5781518083602001fd5b8060405162461bcd60e51b815260040161086691906131f5565b6001600160e01b03198116811461173757600080fd5b60006020828403121561313f57600080fd5b81356116ec81613117565b60006020828403121561315c57600080fd5b5035919050565b60005b8381101561317e578181015183820152602001613166565b50506000910152565b6000815180845261319f816020860160208601613163565b601f01601f19169290920160200192915050565b85815260a0602082015260006131cc60a0830187613187565b6040830195909552506001600160a01b0392909216606083015260ff1660809091015292915050565b6020815260006116ec6020830184613187565b6001600160a01b038116811461173757600080fd5b6000806040838503121561323057600080fd5b823561323b81613208565b946020939093013593505050565b634e487b7160e01b600052604160045260246000fd5b600067ffffffffffffffff8084111561327a5761327a613249565b604051601f8501601f19908116603f011681019082821181831017156132a2576132a2613249565b816040528093508581528686860111156132bb57600080fd5b858560208301376000602087830101525050509392505050565b600082601f8301126132e657600080fd5b6116ec8383356020850161325f565b60008060008084860360c081121561330c57600080fd5b853567ffffffffffffffff8082111561332457600080fd5b61333089838a016132d5565b9650602088013591508082111561334657600080fd5b818801915088601f83011261335a57600080fd5b81358181111561336957600080fd5b89602082850101111561337b57600080fd5b6020929092019550909350506080603f198201121561339957600080fd5b509295919450926040019150565b600080600080608085870312156133bd57600080fd5b84356133c881613208565b935060208501356133d881613208565b925060408501359150606085013567ffffffffffffffff8111156133fb57600080fd5b8501601f8101871361340c57600080fd5b61341b8782356020840161325f565b91505092959194509250565b60008060006060848603121561343c57600080fd5b833561344781613208565b9250602084013561345781613208565b929592945050506040919091013590565b6000806040838503121561347b57600080fd5b82359150602083013561348d81613208565b809150509250929050565b803560ff811681146134a957600080fd5b919050565b6000806000606084860312156134c357600080fd5b833567ffffffffffffffff8111156134da57600080fd5b6134e6868287016132d5565b9350506134f560208501613498565b9150604084013590509250925092565b60006020828403121561351757600080fd5b81356116ec81613208565b6000806040838503121561353557600080fd5b823561354081613208565b9150602083013567ffffffffffffffff81111561355c57600080fd5b613568858286016132d5565b9150509250929050565b801515811461173757600080fd5b6000806040838503121561359357600080fd5b823561359e81613208565b9150602083013561348d81613572565b6000602082840312156135c057600080fd5b813567ffffffffffffffff8111156135d757600080fd5b610db7848285016132d5565b600080604083850312156135f657600080fd5b823561360181613208565b9150602083013561348d81613208565b600181811c9082168061362557607f821691505b60208210810361364557634e487b7160e01b600052602260045260246000fd5b50919050565b6000825161365d818460208701613163565b9190910192915050565b634e487b7160e01b600052601160045260246000fd5b60006001820161368f5761368f613667565b5060010190565b6000602082840312156136a857600080fd5b6116ec82613498565b6000602082840312156136c357600080fd5b81516116ec81613208565b6001600160a01b038516815283602082015260606040820152816060820152818360808301376000818301608090810191909152601f909201601f191601019392505050565b601f82111561090757600081815260208120601f850160051c8101602086101561373b5750805b601f850160051c820191505b8181101561375a57828155600101613747565b505050505050565b815167ffffffffffffffff81111561377c5761377c613249565b6137908161378a8454613611565b84613714565b602080601f8311600181146137c557600084156137ad5750858301515b600019600386901b1c1916600185901b17855561375a565b600085815260208120601f198616915b828110156137f4578886015182559484019460019091019084016137d5565b50858210156138125787850151600019600388901b60f8161c191681555b5050505050600190811b01905550565b6060815260006138356060830186613187565b905083602083015260ff83166040830152949350505050565b60008351613860818460208801613163565b835190830190613874818360208801613163565b01949350505050565b60006020828403121561388f57600080fd5b5051919050565b8082018082111561065057610650613667565b8181038181111561065057610650613667565b7f416363657373436f6e74726f6c3a206163636f756e74200000000000000000008152600083516138f4816017850160208801613163565b7f206973206d697373696e6720726f6c65200000000000000000000000000000006017918401918201528351613931816028840160208801613163565b01602801949350505050565b60006001600160a01b0380871683528086166020840152508360408301526080606083015261396f6080830184613187565b9695505050505050565b60006020828403121561398b57600080fd5b81516116ec81613117565b6000602082840312156139a857600080fd5b81516116ec81613572565b808202811582820484141761065057610650613667565b634e487b7160e01b600052603260045260246000fd5b6000816139ef576139ef613667565b50600019019056fea264697066735822122021fa177d4a9be113e39b43a4a77724c491a53d3497345182fbfaeef341a9c62b64736f6c63430008130033",
  "linkReferences": {},
  "deployedLinkReferences": {}
}