{
    "_format": "hh-sol-artifact-1",
    "contractName": "Snews",
    "sourceName": "src/Snews.sol",
    "abi": [
        {
            "anonymous": false,
            "inputs": [
                {
                    "indexed": true,
                    "internalType": "address",
                    "name": "owner",
                    "type": "address"
                },
                {
                    "indexed": true,
                    "internalType": "address",
                    "name": "approved",
                    "type": "address"
                },
                {
                    "indexed": true,
                    "internalType": "uint256",
                    "name": "tokenId",
                    "type": "uint256"
                }
            ],
            "name": "Approval",
            "type": "event"
        },
        {
            "anonymous": false,
            "inputs": [
                {
                    "indexed": true,
                    "internalType": "address",
                    "name": "owner",
                    "type": "address"
                },
                {
                    "indexed": true,
                    "internalType": "address",
                    "name": "operator",
                    "type": "address"
                },
                {
                    "indexed": false,
                    "internalType": "bool",
                    "name": "approved",
                    "type": "bool"
                }
            ],
            "name": "ApprovalForAll",
            "type": "event"
        },
        {
            "anonymous": false,
            "inputs": [
                {
                    "indexed": true,
                    "internalType": "uint256",
                    "name": "tokenId",
                    "type": "uint256"
                },
                {
                    "indexed": false,
                    "internalType": "address",
                    "name": "readerAddress",
                    "type": "address"
                },
                {
                    "indexed": false,
                    "internalType": "uint256",
                    "name": "tokenValue",
                    "type": "uint256"
                },
                {
                    "indexed": false,
                    "internalType": "string",
                    "name": "transactionId",
                    "type": "string"
                }
            ],
            "name": "ClaimToken",
            "type": "event"
        },
        {
            "anonymous": false,
            "inputs": [
                {
                    "indexed": true,
                    "internalType": "uint256",
                    "name": "tokenId",
                    "type": "uint256"
                },
                {
                    "indexed": true,
                    "internalType": "address",
                    "name": "ownerAddress",
                    "type": "address"
                },
                {
                    "indexed": false,
                    "internalType": "string",
                    "name": "slug",
                    "type": "string"
                },
                {
                    "indexed": false,
                    "internalType": "uint256",
                    "name": "totalSupply",
                    "type": "uint256"
                }
            ],
            "name": "CreateNews",
            "type": "event"
        },
        {
            "anonymous": false,
            "inputs": [
                {
                    "indexed": false,
                    "internalType": "uint8",
                    "name": "version",
                    "type": "uint8"
                }
            ],
            "name": "Initialized",
            "type": "event"
        },
        {
            "anonymous": false,
            "inputs": [
                {
                    "indexed": true,
                    "internalType": "address",
                    "name": "previousOwner",
                    "type": "address"
                },
                {
                    "indexed": true,
                    "internalType": "address",
                    "name": "newOwner",
                    "type": "address"
                }
            ],
            "name": "OwnershipTransferred",
            "type": "event"
        },
        {
            "anonymous": false,
            "inputs": [
                {
                    "indexed": true,
                    "internalType": "bytes32",
                    "name": "role",
                    "type": "bytes32"
                },
                {
                    "indexed": true,
                    "internalType": "bytes32",
                    "name": "previousAdminRole",
                    "type": "bytes32"
                },
                {
                    "indexed": true,
                    "internalType": "bytes32",
                    "name": "newAdminRole",
                    "type": "bytes32"
                }
            ],
            "name": "RoleAdminChanged",
            "type": "event"
        },
        {
            "anonymous": false,
            "inputs": [
                {
                    "indexed": true,
                    "internalType": "bytes32",
                    "name": "role",
                    "type": "bytes32"
                },
                {
                    "indexed": true,
                    "internalType": "address",
                    "name": "account",
                    "type": "address"
                },
                {
                    "indexed": true,
                    "internalType": "address",
                    "name": "sender",
                    "type": "address"
                }
            ],
            "name": "RoleGranted",
            "type": "event"
        },
        {
            "anonymous": false,
            "inputs": [
                {
                    "indexed": true,
                    "internalType": "bytes32",
                    "name": "role",
                    "type": "bytes32"
                },
                {
                    "indexed": true,
                    "internalType": "address",
                    "name": "account",
                    "type": "address"
                },
                {
                    "indexed": true,
                    "internalType": "address",
                    "name": "sender",
                    "type": "address"
                }
            ],
            "name": "RoleRevoked",
            "type": "event"
        },
        {
            "anonymous": false,
            "inputs": [
                {
                    "indexed": true,
                    "internalType": "address",
                    "name": "from",
                    "type": "address"
                },
                {
                    "indexed": true,
                    "internalType": "address",
                    "name": "to",
                    "type": "address"
                },
                {
                    "indexed": true,
                    "internalType": "uint256",
                    "name": "tokenId",
                    "type": "uint256"
                }
            ],
            "name": "Transfer",
            "type": "event"
        },
        {
            "inputs": [],
            "name": "DEFAULT_ADMIN_ROLE",
            "outputs": [
                {
                    "internalType": "bytes32",
                    "name": "",
                    "type": "bytes32"
                }
            ],
            "stateMutability": "view",
            "type": "function"
        },
        {
            "inputs": [],
            "name": "WRITER_ROLE",
            "outputs": [
                {
                    "internalType": "bytes32",
                    "name": "",
                    "type": "bytes32"
                }
            ],
            "stateMutability": "view",
            "type": "function"
        },
        {
            "inputs": [
                {
                    "internalType": "address",
                    "name": "_resolver",
                    "type": "address"
                },
                {
                    "internalType": "string",
                    "name": "_version",
                    "type": "string"
                }
            ],
            "name": "__Snews_init",
            "outputs": [],
            "stateMutability": "nonpayable",
            "type": "function"
        },
        {
            "inputs": [
                {
                    "internalType": "address",
                    "name": "to",
                    "type": "address"
                },
                {
                    "internalType": "uint256",
                    "name": "tokenId",
                    "type": "uint256"
                }
            ],
            "name": "approve",
            "outputs": [],
            "stateMutability": "nonpayable",
            "type": "function"
        },
        {
            "inputs": [
                {
                    "internalType": "address",
                    "name": "account",
                    "type": "address"
                }
            ],
            "name": "approveWriterRole",
            "outputs": [],
            "stateMutability": "nonpayable",
            "type": "function"
        },
        {
            "inputs": [
                {
                    "internalType": "address",
                    "name": "owner",
                    "type": "address"
                }
            ],
            "name": "balanceOf",
            "outputs": [
                {
                    "internalType": "uint256",
                    "name": "",
                    "type": "uint256"
                }
            ],
            "stateMutability": "view",
            "type": "function"
        },
        {
            "inputs": [
                {
                    "internalType": "string",
                    "name": "slug",
                    "type": "string"
                },
                {
                    "internalType": "string",
                    "name": "transactionId",
                    "type": "string"
                },
                {
                    "components": [
                        {
                            "internalType": "uint256",
                            "name": "deadline",
                            "type": "uint256"
                        },
                        {
                            "internalType": "uint8",
                            "name": "v",
                            "type": "uint8"
                        },
                        {
                            "internalType": "bytes32",
                            "name": "r",
                            "type": "bytes32"
                        },
                        {
                            "internalType": "bytes32",
                            "name": "s",
                            "type": "bytes32"
                        }
                    ],
                    "internalType": "struct ISnews.EIP712Signature",
                    "name": "_signature",
                    "type": "tuple"
                }
            ],
            "name": "claimToken",
            "outputs": [],
            "stateMutability": "nonpayable",
            "type": "function"
        },
        {
            "inputs": [
                {
                    "internalType": "string",
                    "name": "slug",
                    "type": "string"
                },
                {
                    "internalType": "uint256",
                    "name": "totalSupply",
                    "type": "uint256"
                }
            ],
            "name": "createNews",
            "outputs": [],
            "stateMutability": "nonpayable",
            "type": "function"
        },
        {
            "inputs": [
                {
                    "internalType": "uint256",
                    "name": "tokenId",
                    "type": "uint256"
                }
            ],
            "name": "getApproved",
            "outputs": [
                {
                    "internalType": "address",
                    "name": "",
                    "type": "address"
                }
            ],
            "stateMutability": "view",
            "type": "function"
        },
        {
            "inputs": [
                {
                    "internalType": "bytes32",
                    "name": "role",
                    "type": "bytes32"
                }
            ],
            "name": "getRoleAdmin",
            "outputs": [
                {
                    "internalType": "bytes32",
                    "name": "",
                    "type": "bytes32"
                }
            ],
            "stateMutability": "view",
            "type": "function"
        },
        {
            "inputs": [
                {
                    "internalType": "bytes32",
                    "name": "role",
                    "type": "bytes32"
                },
                {
                    "internalType": "address",
                    "name": "account",
                    "type": "address"
                }
            ],
            "name": "grantRole",
            "outputs": [],
            "stateMutability": "nonpayable",
            "type": "function"
        },
        {
            "inputs": [
                {
                    "internalType": "bytes32",
                    "name": "role",
                    "type": "bytes32"
                },
                {
                    "internalType": "address",
                    "name": "account",
                    "type": "address"
                }
            ],
            "name": "hasRole",
            "outputs": [
                {
                    "internalType": "bool",
                    "name": "",
                    "type": "bool"
                }
            ],
            "stateMutability": "view",
            "type": "function"
        },
        {
            "inputs": [
                {
                    "internalType": "address",
                    "name": "owner",
                    "type": "address"
                },
                {
                    "internalType": "address",
                    "name": "operator",
                    "type": "address"
                }
            ],
            "name": "isApprovedForAll",
            "outputs": [
                {
                    "internalType": "bool",
                    "name": "",
                    "type": "bool"
                }
            ],
            "stateMutability": "view",
            "type": "function"
        },
        {
            "inputs": [],
            "name": "name",
            "outputs": [
                {
                    "internalType": "string",
                    "name": "",
                    "type": "string"
                }
            ],
            "stateMutability": "view",
            "type": "function"
        },
        {
            "inputs": [
                {
                    "internalType": "bytes32",
                    "name": "",
                    "type": "bytes32"
                }
            ],
            "name": "newsFund",
            "outputs": [
                {
                    "internalType": "uint256",
                    "name": "",
                    "type": "uint256"
                }
            ],
            "stateMutability": "view",
            "type": "function"
        },
        {
            "inputs": [
                {
                    "internalType": "bytes32",
                    "name": "",
                    "type": "bytes32"
                }
            ],
            "name": "newsStorage",
            "outputs": [
                {
                    "internalType": "uint256",
                    "name": "tokenId",
                    "type": "uint256"
                },
                {
                    "internalType": "string",
                    "name": "slug",
                    "type": "string"
                },
                {
                    "internalType": "uint256",
                    "name": "totalSupply",
                    "type": "uint256"
                },
                {
                    "internalType": "address",
                    "name": "owner",
                    "type": "address"
                }
            ],
            "stateMutability": "view",
            "type": "function"
        },
        {
            "inputs": [
                {
                    "internalType": "address",
                    "name": "",
                    "type": "address"
                },
                {
                    "internalType": "address",
                    "name": "",
                    "type": "address"
                },
                {
                    "internalType": "uint256",
                    "name": "",
                    "type": "uint256"
                },
                {
                    "internalType": "bytes",
                    "name": "",
                    "type": "bytes"
                }
            ],
            "name": "onERC721Received",
            "outputs": [
                {
                    "internalType": "bytes4",
                    "name": "",
                    "type": "bytes4"
                }
            ],
            "stateMutability": "nonpayable",
            "type": "function"
        },
        {
            "inputs": [],
            "name": "owner",
            "outputs": [
                {
                    "internalType": "address",
                    "name": "",
                    "type": "address"
                }
            ],
            "stateMutability": "view",
            "type": "function"
        },
        {
            "inputs": [
                {
                    "internalType": "uint256",
                    "name": "tokenId",
                    "type": "uint256"
                }
            ],
            "name": "ownerOf",
            "outputs": [
                {
                    "internalType": "address",
                    "name": "",
                    "type": "address"
                }
            ],
            "stateMutability": "view",
            "type": "function"
        },
        {
            "inputs": [],
            "name": "renounceOwnership",
            "outputs": [],
            "stateMutability": "nonpayable",
            "type": "function"
        },
        {
            "inputs": [
                {
                    "internalType": "bytes32",
                    "name": "role",
                    "type": "bytes32"
                },
                {
                    "internalType": "address",
                    "name": "account",
                    "type": "address"
                }
            ],
            "name": "renounceRole",
            "outputs": [],
            "stateMutability": "nonpayable",
            "type": "function"
        },
        {
            "inputs": [
                {
                    "internalType": "bytes32",
                    "name": "role",
                    "type": "bytes32"
                },
                {
                    "internalType": "address",
                    "name": "account",
                    "type": "address"
                }
            ],
            "name": "revokeRole",
            "outputs": [],
            "stateMutability": "nonpayable",
            "type": "function"
        },
        {
            "inputs": [
                {
                    "internalType": "address",
                    "name": "from",
                    "type": "address"
                },
                {
                    "internalType": "address",
                    "name": "to",
                    "type": "address"
                },
                {
                    "internalType": "uint256",
                    "name": "tokenId",
                    "type": "uint256"
                }
            ],
            "name": "safeTransferFrom",
            "outputs": [],
            "stateMutability": "nonpayable",
            "type": "function"
        },
        {
            "inputs": [
                {
                    "internalType": "address",
                    "name": "from",
                    "type": "address"
                },
                {
                    "internalType": "address",
                    "name": "to",
                    "type": "address"
                },
                {
                    "internalType": "uint256",
                    "name": "tokenId",
                    "type": "uint256"
                },
                {
                    "internalType": "bytes",
                    "name": "data",
                    "type": "bytes"
                }
            ],
            "name": "safeTransferFrom",
            "outputs": [],
            "stateMutability": "nonpayable",
            "type": "function"
        },
        {
            "inputs": [
                {
                    "internalType": "address",
                    "name": "operator",
                    "type": "address"
                },
                {
                    "internalType": "bool",
                    "name": "approved",
                    "type": "bool"
                }
            ],
            "name": "setApprovalForAll",
            "outputs": [],
            "stateMutability": "nonpayable",
            "type": "function"
        },
        {
            "inputs": [
                {
                    "internalType": "address",
                    "name": "_signer",
                    "type": "address"
                }
            ],
            "name": "setSigner",
            "outputs": [],
            "stateMutability": "nonpayable",
            "type": "function"
        },
        {
            "inputs": [
                {
                    "internalType": "string",
                    "name": "",
                    "type": "string"
                }
            ],
            "name": "slugStorage",
            "outputs": [
                {
                    "internalType": "bool",
                    "name": "",
                    "type": "bool"
                }
            ],
            "stateMutability": "view",
            "type": "function"
        },
        {
            "inputs": [
                {
                    "internalType": "bytes4",
                    "name": "interfaceId",
                    "type": "bytes4"
                }
            ],
            "name": "supportsInterface",
            "outputs": [
                {
                    "internalType": "bool",
                    "name": "",
                    "type": "bool"
                }
            ],
            "stateMutability": "view",
            "type": "function"
        },
        {
            "inputs": [],
            "name": "symbol",
            "outputs": [
                {
                    "internalType": "string",
                    "name": "",
                    "type": "string"
                }
            ],
            "stateMutability": "view",
            "type": "function"
        },
        {
            "inputs": [
                {
                    "internalType": "uint256",
                    "name": "tokenId",
                    "type": "uint256"
                }
            ],
            "name": "tokenURI",
            "outputs": [
                {
                    "internalType": "string",
                    "name": "",
                    "type": "string"
                }
            ],
            "stateMutability": "view",
            "type": "function"
        },
        {
            "inputs": [
                {
                    "internalType": "address",
                    "name": "",
                    "type": "address"
                }
            ],
            "name": "tokenWithDrawalNonces",
            "outputs": [
                {
                    "internalType": "uint256",
                    "name": "",
                    "type": "uint256"
                }
            ],
            "stateMutability": "view",
            "type": "function"
        },
        {
            "inputs": [
                {
                    "internalType": "address",
                    "name": "from",
                    "type": "address"
                },
                {
                    "internalType": "address",
                    "name": "to",
                    "type": "address"
                },
                {
                    "internalType": "uint256",
                    "name": "tokenId",
                    "type": "uint256"
                }
            ],
            "name": "transferFrom",
            "outputs": [],
            "stateMutability": "nonpayable",
            "type": "function"
        },
        {
            "inputs": [
                {
                    "internalType": "address",
                    "name": "newOwner",
                    "type": "address"
                }
            ],
            "name": "transferOwnership",
            "outputs": [],
            "stateMutability": "nonpayable",
            "type": "function"
        },
        {
            "inputs": [
                {
                    "internalType": "address",
                    "name": "",
                    "type": "address"
                },
                {
                    "internalType": "uint256",
                    "name": "",
                    "type": "uint256"
                }
            ],
            "name": "userClaimNews",
            "outputs": [
                {
                    "internalType": "bool",
                    "name": "",
                    "type": "bool"
                }
            ],
            "stateMutability": "view",
            "type": "function"
        },
        {
            "inputs": [],
            "name": "version",
            "outputs": [
                {
                    "internalType": "string",
                    "name": "",
                    "type": "string"
                }
            ],
            "stateMutability": "view",
            "type": "function"
        }
    ],
    "bytecode": "0x608060405234801561001057600080fd5b50613485806100206000396000f3fe608060405234801561001057600080fd5b50600436106102115760003560e01c806370a0823111610125578063a22cb465116100ad578063c87b56dd1161007c578063c87b56dd146104f1578063cf01564614610504578063d547741f14610517578063e985e9c51461052a578063f2fde38b1461056657600080fd5b8063a22cb4651461046d578063af58ea7214610480578063b4fa9b9c146104af578063b88d4fde146104de57600080fd5b806391d14854116100f457806391d148541461041457806395d89b41146104275780639beaab7b1461042f5780639e888ca314610444578063a217fddf1461046557600080fd5b806370a08231146103d5578063715018a6146103e85780638d16c033146103f05780638da5cb5b1461040357600080fd5b8063248a9ca3116101a85780634c44d0df116101775780634c44d0df1461037357806354fd4d501461039457806360b80a4d1461039c5780636352211e146103af5780636c19e783146103c257600080fd5b8063248a9ca3146103085780632f2ff15d1461033a57806336568abe1461034d57806342842e0e1461036057600080fd5b8063095ea7b3116101e4578063095ea7b3146102a1578063098fab79146102b6578063150b7a02146102c957806323b872dd146102f557600080fd5b806301ffc9a71461021657806303c9f7d21461023e57806306fdde0314610261578063081812fc14610276575b600080fd5b610229610224366004612a71565b610579565b60405190151581526020015b60405180910390f35b61025161024c366004612a8e565b6105a4565b6040516102359493929190612af7565b610269610660565b6040516102359190612b31565b610289610284366004612a8e565b6106f2565b6040516001600160a01b039091168152602001610235565b6102b46102af366004612b59565b610719565b005b6102b46102c4366004612c31565b610833565b6102dc6102d7366004612ce3565b610c7b565b6040516001600160e01b03199091168152602001610235565b6102b4610303366004612d63565b610c8c565b61032c610316366004612a8e565b600090815261012d602052604090206001015490565b604051908152602001610235565b6102b4610348366004612da4565b610cbd565b6102b461035b366004612da4565b610ce3565b6102b461036e366004612d63565b610d61565b61032c610381366004612a8e565b6101646020526000908152604090205481565b610269610d7c565b6102b46103aa366004612dd4565b610e0b565b6102896103bd366004612a8e565b6110cd565b6102b46103d0366004612e19565b61112d565b61032c6103e3366004612e19565b611158565b6102b46111de565b6102b46103fe366004612e36565b6111f2565b60fb546001600160a01b0316610289565b610229610422366004612da4565b61139c565b6102696113c8565b61032c60008051602061343083398151915281565b61032c610452366004612e19565b6101676020526000908152604090205481565b61032c600081565b6102b461047b366004612e94565b6113d7565b61022961048e366004612b59565b61016660209081526000928352604080842090915290825290205460ff1681565b6102296104bd366004612ec2565b80516020818301810180516101658252928201919093012091525460ff1681565b6102b46104ec366004612ce3565b6113e2565b6102696104ff366004612a8e565b611414565b6102b4610512366004612e19565b611488565b6102b4610525366004612da4565b6114bd565b610229610538366004612ef7565b6001600160a01b039182166000908152606a6020908152604080832093909416825291909152205460ff1690565b6102b4610574366004612e19565b6114e3565b60006001600160e01b0319821663531b7bb960e11b148061059e575061059e82611559565b92915050565b61016360205260009081526040902080546001820180549192916105c790612f25565b80601f01602080910402602001604051908101604052809291908181526020018280546105f390612f25565b80156106405780601f1061061557610100808354040283529160200191610640565b820191906000526020600020905b81548152906001019060200180831161062357829003601f168201915b5050505060028301546003909301549192916001600160a01b0316905084565b60606065805461066f90612f25565b80601f016020809104026020016040519081016040528092919081815260200182805461069b90612f25565b80156106e85780601f106106bd576101008083540402835291602001916106e8565b820191906000526020600020905b8154815290600101906020018083116106cb57829003601f168201915b5050505050905090565b60006106fd8261157e565b506000908152606960205260409020546001600160a01b031690565b6000610724826110cd565b9050806001600160a01b0316836001600160a01b0316036107965760405162461bcd60e51b815260206004820152602160248201527f4552433732313a20617070726f76616c20746f2063757272656e74206f776e656044820152603960f91b60648201526084015b60405180910390fd5b336001600160a01b03821614806107b257506107b28133610538565b6108245760405162461bcd60e51b815260206004820152603d60248201527f4552433732313a20617070726f76652063616c6c6572206973206e6f7420746f60448201527f6b656e206f776e6572206f7220617070726f76656420666f7220616c6c000000606482015260840161078d565b61082e83836115dd565b505050565b61083b61164b565b60006101636000866040516020016108539190612f5f565b6040516020818303038152906040528051906020012081526020019081526020016000206040518060800160405290816000820154815260200160018201805461089c90612f25565b80601f01602080910402602001604051908101604052809291908181526020018280546108c890612f25565b80156109155780601f106108ea57610100808354040283529160200191610915565b820191906000526020600020905b8154815290600101906020018083116108f857829003601f168201915b505050918352505060028201546020808301919091526003909201546001600160a01b031660409182015233600090815261016683528181208451825290925290205490915060ff16156109ab5760405162461bcd60e51b815260206004820152601b60248201527f757365722068617320636c61696d65642074686973206e657773210000000000604482015260640161078d565b80604001516000036109f75760405162461bcd60e51b8152602060048201526015602482015274546865204e6577732063616e277420636c61696d2160581b604482015260640161078d565b600061016254610a9e610a073390565b845133600090815261016760205260408120805491610a2583612f91565b919050558660400151604080517f4ab9f47577b0d80b441d9853bbf45ed6808d8e582b31c5c530b6b5503608b79c6020808301919091526001600160a01b0396909616818301526060810194909452608084019290925260a0808401919091528151808403909101815260c09092019052805191012090565b60405161190160f01b6020820152602281019290925260428201526062016040516020818303038152906040528051906020012090506000600182856020016020810190610aec9190612faa565b6040805160008152602081018083529390935260ff90911682820152860135606080830191909152860135608082015260a0016020604051602081039080840390855afa158015610b41573d6000803e3d6000fd5b5050604051601f190151610160549092506001600160a01b038084169116149050610ba25760405162461bcd60e51b815260206004820152601160248201527014da59db985d1d5c99481a5b9d985b1a59607a1b604482015260640161078d565b610c1e3360408581015161015f54915163c6ee427f60e01b81526005600482015290916001600160a01b03169063c6ee427f90602401602060405180830381865afa158015610bf5573d6000803e3d6000fd5b505050506040513d601f19601f82011682018060405250810190610c199190612fcd565b6116a4565b82517fb0bb310ecca5c5a1e4e71d2f7db06fde0dee835f67892df86942b5b9ac10eeae3385604001518989604051610c599493929190612fea565b60405180910390a250506000604090910152610c75600160c955565b50505050565b630a85bd0160e11b5b949350505050565b610c963382611769565b610cb25760405162461bcd60e51b815260040161078d90613032565b61082e8383836117e7565b600082815261012d6020526040902060010154610cd981611958565b61082e8383611962565b6001600160a01b0381163314610d535760405162461bcd60e51b815260206004820152602f60248201527f416363657373436f6e74726f6c3a2063616e206f6e6c792072656e6f756e636560448201526e103937b632b9903337b91039b2b63360891b606482015260840161078d565b610d5d82826119e9565b5050565b61082e838383604051806020016040528060008152506113e2565b6101688054610d8a90612f25565b80601f0160208091040260200160405190810160405280929190818152602001828054610db690612f25565b8015610e035780601f10610dd857610100808354040283529160200191610e03565b820191906000526020600020905b815481529060010190602001808311610de657829003601f168201915b505050505081565b610e1361164b565b600080516020613430833981519152610e2b81611958565b61016583604051610e3c9190612f5f565b9081526040519081900360200190205460ff1615610ea75760405162461bcd60e51b815260206004820152602260248201527f54686520536c7567207761732075736564206279206f746865722070656f706c604482015261652160f01b606482015260840161078d565b8115610f665761015f5460405163c6ee427f60e01b815260056004820152610f269184916001600160a01b039091169063c6ee427f90602401602060405180830381865afa158015610efd573d6000803e3d6000fd5b505050506040513d601f19601f82011682018060405250810190610f219190612fcd565b611a51565b81610164600085604051602001610f3d9190612f5f565b604051602081830303815290604052805190602001208152602001908152602001600020819055505b6000610f726101615490565b90506040518060800160405280828152602001858152602001848152602001610f983390565b6001600160a01b0316815250610163600086604051602001610fba9190612f5f565b60408051601f198184030181529181528151602092830120835282820193909352910160002082518155908201516001820190610ff790826130cd565b506040828101516002830155606090920151600390910180546001600160a01b0319166001600160a01b03909216919091179055516001906101659061103e908790612f5f565b908152604051908190036020019020805491151560ff1990921691909117905561106e6110683390565b82611cce565b61107d61016180546001019055565b336001600160a01b0316817f95d36bae6b8951c4853e21a7976dc24fe992f10da668c4cc822187d905d6b76886866040516110b992919061318d565b60405180910390a35050610d5d600160c955565b6000818152606760205260408120546001600160a01b03168061059e5760405162461bcd60e51b8152602060048201526018602482015277115490cdcc8c4e881a5b9d985b1a59081d1bdad95b88125160421b604482015260640161078d565b611135611ce8565b61016080546001600160a01b0319166001600160a01b0392909216919091179055565b60006001600160a01b0382166111c25760405162461bcd60e51b815260206004820152602960248201527f4552433732313a2061646472657373207a65726f206973206e6f7420612076616044820152683634b21037bbb732b960b91b606482015260840161078d565b506001600160a01b031660009081526068602052604090205490565b6111e6611ce8565b6111f06000611d42565b565b600054610100900460ff16158080156112125750600054600160ff909116105b8061122c5750303b15801561122c575060005460ff166001145b61128f5760405162461bcd60e51b815260206004820152602e60248201527f496e697469616c697a61626c653a20636f6e747261637420697320616c72656160448201526d191e481a5b9a5d1a585b1a5e995960921b606482015260840161078d565b6000805460ff1916600117905580156112b2576000805461ff0019166101001790555b6112fc6040518060400160405280600d81526020016c4e657773206f6620536e65777360981b81525060405180604001604052806003815260200162534e5360e81b815250611d94565b611304611dc5565b61131c60008051602061343083398151915233611df4565b611324611dfe565b6101625561015f80546001600160a01b0319166001600160a01b03851617905561016861135183826130cd565b50801561082e576000805461ff0019169055604051600181527f7f26b83ff96e1f2b6a682f133852f6798a09c465da95921460cefb38474024989060200160405180910390a1505050565b600091825261012d602090815260408084206001600160a01b0393909316845291905290205460ff1690565b60606066805461066f90612f25565b610d5d338383611f46565b6113ec3383611769565b6114085760405162461bcd60e51b815260040161078d90613032565b610c7584848484612014565b606061141f8261157e565b600061143660408051602081019091526000815290565b905060008151116114565760405180602001604052806000815250611481565b8061146084612047565b6040516020016114719291906131af565b6040516020818303038152906040525b9392505050565b611490611ce8565b61149861164b565b6114b060008051602061343083398151915282611df4565b6114ba600160c955565b50565b600082815261012d60205260409020600101546114d981611958565b61082e83836119e9565b6114eb611ce8565b6001600160a01b0381166115505760405162461bcd60e51b815260206004820152602660248201527f4f776e61626c653a206e6577206f776e657220697320746865207a65726f206160448201526564647265737360d01b606482015260840161078d565b6114ba81611d42565b60006001600160e01b03198216637965db0b60e01b148061059e575061059e826120da565b6000818152606760205260409020546001600160a01b03166114ba5760405162461bcd60e51b8152602060048201526018602482015277115490cdcc8c4e881a5b9d985b1a59081d1bdad95b88125160421b604482015260640161078d565b600081815260696020526040902080546001600160a01b0319166001600160a01b0384169081179091558190611612826110cd565b6001600160a01b03167f8c5be1e5ebec7d5bd14f71427d1e84f3dd0314c0f7b2291e5b200ac8c7c3b92560405160405180910390a45050565b600260c9540361169d5760405162461bcd60e51b815260206004820152601f60248201527f5265656e7472616e637947756172643a207265656e7472616e742063616c6c00604482015260640161078d565b600260c955565b6001600160a01b038116611755576000836001600160a01b03168360405160006040518083038185875af1925050503d80600081146116ff576040519150601f19603f3d011682016040523d82523d6000602084013e611704565b606091505b5050905080610c755760405162461bcd60e51b815260206004820152601a60248201527f5472616e73666572206661696c65643a20676173206572726f72000000000000604482015260640161078d565b61082e6001600160a01b038216848461212a565b600080611775836110cd565b9050806001600160a01b0316846001600160a01b031614806117bc57506001600160a01b038082166000908152606a602090815260408083209388168352929052205460ff165b80610c845750836001600160a01b03166117d5846106f2565b6001600160a01b031614949350505050565b826001600160a01b03166117fa826110cd565b6001600160a01b0316146118205760405162461bcd60e51b815260040161078d906131de565b6001600160a01b0382166118825760405162461bcd60e51b8152602060048201526024808201527f4552433732313a207472616e7366657220746f20746865207a65726f206164646044820152637265737360e01b606482015260840161078d565b61188f838383600161218d565b826001600160a01b03166118a2826110cd565b6001600160a01b0316146118c85760405162461bcd60e51b815260040161078d906131de565b600081815260696020908152604080832080546001600160a01b03199081169091556001600160a01b0387811680865260688552838620805460001901905590871680865283862080546001019055868652606790945282852080549092168417909155905184937fddf252ad1be2c89b69c2b068fc378daa952ba7f163c4a11628f55a4df523b3ef91a4505050565b6114ba8133612215565b61196c828261139c565b610d5d57600082815261012d602090815260408083206001600160a01b03851684529091529020805460ff191660011790556119a53390565b6001600160a01b0316816001600160a01b0316837f2f8788117e7eff1d82e926ec794901d17c78024a50270940304540a733656f0d60405160405180910390a45050565b6119f3828261139c565b15610d5d57600082815261012d602090815260408083206001600160a01b0385168085529252808320805460ff1916905551339285917ff6391f5c32d9c69d2a47ea670b442974b53935d1edc7fd64eb21e047a839171b9190a45050565b6001600160a01b038116611b6157813414611ac95760405162461bcd60e51b815260206004820152603260248201527f53656e7420424e422056616c756520646f6573206e6f74206d617463682073706044820152711958da599a595908189a5908185b5bdd5b9d60721b606482015260840161078d565b604051600090309034908381818185875af1925050503d8060008114611b0b576040519150601f19603f3d011682016040523d82523d6000602084013e611b10565b606091505b505090508061082e5760405162461bcd60e51b815260206004820152601a60248201527f5472616e73666572206661696c65643a20676173206572726f72000000000000604482015260640161078d565b6040516370a0823160e01b815230600482015281906000906001600160a01b038316906370a0823190602401602060405180830381865afa158015611baa573d6000803e3d6000fd5b505050506040513d601f19601f82011682018060405250810190611bce9190613223565b9050611be56001600160a01b03831633308761226e565b6040516370a0823160e01b81523060048201526000906001600160a01b038416906370a0823190602401602060405180830381865afa158015611c2c573d6000803e3d6000fd5b505050506040513d601f19601f82011682018060405250810190611c509190613223565b905080611c5d868461323c565b14611cc75760405162461bcd60e51b815260206004820152603460248201527f546f6b656e207472616e736665722063616c6c20646964206e6f74207472616e6044820152731cd9995c88195e1c1958dd195908185b5bdd5b9d60621b606482015260840161078d565b5050505050565b610d5d8282604051806020016040528060008152506122a6565b60fb546001600160a01b031633146111f05760405162461bcd60e51b815260206004820181905260248201527f4f776e61626c653a2063616c6c6572206973206e6f7420746865206f776e6572604482015260640161078d565b60fb80546001600160a01b038381166001600160a01b0319831681179093556040519116919082907f8be0079c531659141344cd1fd0a4f28419497f9722a3daafe3b4186f6b6457e090600090a35050565b600054610100900460ff16611dbb5760405162461bcd60e51b815260040161078d9061324f565b610d5d82826122d9565b600054610100900460ff16611dec5760405162461bcd60e51b815260040161078d9061324f565b6111f0612319565b610d5d8282611962565b6000611f41604051806060016040528060405180604001604052806005815260200164534e65777360d81b81525081526020016101688054611e3f90612f25565b80601f0160208091040260200160405190810160405280929190818152602001828054611e6b90612f25565b8015611eb85780601f10611e8d57610100808354040283529160200191611eb8565b820191906000526020600020905b815481529060010190602001808311611e9b57829003601f168201915b50505091835250503060209182015281518051908201208282015180519083012060409384015184517f91ab3d17e3a50a9d89e63fd30b92be7f5336b03b287bb946787a83a9d62a2766818601528086019390935260608301919091526001600160a01b03166080808301919091528351808303909101815260a0909101909252815191012090565b905090565b816001600160a01b0316836001600160a01b031603611fa75760405162461bcd60e51b815260206004820152601960248201527f4552433732313a20617070726f766520746f2063616c6c657200000000000000604482015260640161078d565b6001600160a01b038381166000818152606a6020908152604080832094871680845294825291829020805460ff191686151590811790915591519182527f17307eab39ab6107e8899845ad3d59bd9653f200f220920489ca2b5937696c31910160405180910390a3505050565b61201f8484846117e7565b61202b84848484612349565b610c755760405162461bcd60e51b815260040161078d9061329a565b6060600061205483612447565b600101905060008167ffffffffffffffff81111561207457612074612b85565b6040519080825280601f01601f19166020018201604052801561209e576020820181803683370190505b5090508181016020015b600019016f181899199a1a9b1b9c1cb0b131b232b360811b600a86061a8153600a85049450846120a857509392505050565b60006001600160e01b031982166380ac58cd60e01b148061210b57506001600160e01b03198216635b5e139f60e01b145b8061059e57506301ffc9a760e01b6001600160e01b031983161461059e565b6040516001600160a01b03831660248201526044810182905261082e90849063a9059cbb60e01b906064015b60408051601f198184030181529190526020810180516001600160e01b03166001600160e01b03199093169290921790915261251f565b6001811115610c75576001600160a01b038416156121d3576001600160a01b038416600090815260686020526040812080548392906121cd9084906132ec565b90915550505b6001600160a01b03831615610c75576001600160a01b0383166000908152606860205260408120805483929061220a90849061323c565b909155505050505050565b61221f828261139c565b610d5d5761222c816125f1565b612237836020612603565b6040516020016122489291906132ff565b60408051601f198184030181529082905262461bcd60e51b825261078d91600401612b31565b6040516001600160a01b0380851660248301528316604482015260648101829052610c759085906323b872dd60e01b90608401612156565b6122b0838361279f565b6122bd6000848484612349565b61082e5760405162461bcd60e51b815260040161078d9061329a565b600054610100900460ff166123005760405162461bcd60e51b815260040161078d9061324f565b606561230c83826130cd565b50606661082e82826130cd565b600054610100900460ff166123405760405162461bcd60e51b815260040161078d9061324f565b6111f033611d42565b60006001600160a01b0384163b1561243f57604051630a85bd0160e11b81526001600160a01b0385169063150b7a029061238d903390899088908890600401613374565b6020604051808303816000875af19250505080156123c8575060408051601f3d908101601f191682019092526123c5918101906133b1565b60015b612425573d8080156123f6576040519150601f19603f3d011682016040523d82523d6000602084013e6123fb565b606091505b50805160000361241d5760405162461bcd60e51b815260040161078d9061329a565b805181602001fd5b6001600160e01b031916630a85bd0160e11b149050610c84565b506001610c84565b60008072184f03e93ff9f4daa797ed6e38ed64bf6a1f0160401b83106124865772184f03e93ff9f4daa797ed6e38ed64bf6a1f0160401b830492506040015b6d04ee2d6d415b85acef810000000083106124b2576d04ee2d6d415b85acef8100000000830492506020015b662386f26fc1000083106124d057662386f26fc10000830492506010015b6305f5e10083106124e8576305f5e100830492506008015b61271083106124fc57612710830492506004015b6064831061250e576064830492506002015b600a831061059e5760010192915050565b6000612574826040518060400160405280602081526020017f5361666545524332303a206c6f772d6c6576656c2063616c6c206661696c6564815250856001600160a01b03166129389092919063ffffffff16565b80519091501561082e578080602001905181019061259291906133ce565b61082e5760405162461bcd60e51b815260206004820152602a60248201527f5361666545524332303a204552433230206f7065726174696f6e20646964206e6044820152691bdd081cdd58d8d9595960b21b606482015260840161078d565b606061059e6001600160a01b03831660145b606060006126128360026133eb565b61261d90600261323c565b67ffffffffffffffff81111561263557612635612b85565b6040519080825280601f01601f19166020018201604052801561265f576020820181803683370190505b509050600360fc1b8160008151811061267a5761267a613402565b60200101906001600160f81b031916908160001a905350600f60fb1b816001815181106126a9576126a9613402565b60200101906001600160f81b031916908160001a90535060006126cd8460026133eb565b6126d890600161323c565b90505b6001811115612750576f181899199a1a9b1b9c1cb0b131b232b360811b85600f166010811061270c5761270c613402565b1a60f81b82828151811061272257612722613402565b60200101906001600160f81b031916908160001a90535060049490941c9361274981613418565b90506126db565b5083156114815760405162461bcd60e51b815260206004820181905260248201527f537472696e67733a20686578206c656e67746820696e73756666696369656e74604482015260640161078d565b6001600160a01b0382166127f55760405162461bcd60e51b815260206004820181905260248201527f4552433732313a206d696e7420746f20746865207a65726f2061646472657373604482015260640161078d565b6000818152606760205260409020546001600160a01b03161561285a5760405162461bcd60e51b815260206004820152601c60248201527f4552433732313a20746f6b656e20616c7265616479206d696e74656400000000604482015260640161078d565b61286860008383600161218d565b6000818152606760205260409020546001600160a01b0316156128cd5760405162461bcd60e51b815260206004820152601c60248201527f4552433732313a20746f6b656e20616c7265616479206d696e74656400000000604482015260640161078d565b6001600160a01b038216600081815260686020908152604080832080546001019055848352606790915280822080546001600160a01b0319168417905551839291907fddf252ad1be2c89b69c2b068fc378daa952ba7f163c4a11628f55a4df523b3ef908290a45050565b6060610c84848460008585600080866001600160a01b0316858760405161295f9190612f5f565b60006040518083038185875af1925050503d806000811461299c576040519150601f19603f3d011682016040523d82523d6000602084013e6129a1565b606091505b50915091506129b2878383876129bd565b979650505050505050565b60608315612a2c578251600003612a25576001600160a01b0385163b612a255760405162461bcd60e51b815260206004820152601d60248201527f416464726573733a2063616c6c20746f206e6f6e2d636f6e7472616374000000604482015260640161078d565b5081610c84565b610c848383815115612a415781518083602001fd5b8060405162461bcd60e51b815260040161078d9190612b31565b6001600160e01b0319811681146114ba57600080fd5b600060208284031215612a8357600080fd5b813561148181612a5b565b600060208284031215612aa057600080fd5b5035919050565b60005b83811015612ac2578181015183820152602001612aaa565b50506000910152565b60008151808452612ae3816020860160208601612aa7565b601f01601f19169290920160200192915050565b848152608060208201526000612b106080830186612acb565b6040830194909452506001600160a01b039190911660609091015292915050565b6020815260006114816020830184612acb565b6001600160a01b03811681146114ba57600080fd5b60008060408385031215612b6c57600080fd5b8235612b7781612b44565b946020939093013593505050565b634e487b7160e01b600052604160045260246000fd5b600067ffffffffffffffff80841115612bb657612bb6612b85565b604051601f8501601f19908116603f01168101908282118183101715612bde57612bde612b85565b81604052809350858152868686011115612bf757600080fd5b858560208301376000602087830101525050509392505050565b600082601f830112612c2257600080fd5b61148183833560208501612b9b565b60008060008084860360c0811215612c4857600080fd5b853567ffffffffffffffff80821115612c6057600080fd5b612c6c89838a01612c11565b96506020880135915080821115612c8257600080fd5b818801915088601f830112612c9657600080fd5b813581811115612ca557600080fd5b896020828501011115612cb757600080fd5b6020929092019550909350506080603f1982011215612cd557600080fd5b509295919450926040019150565b60008060008060808587031215612cf957600080fd5b8435612d0481612b44565b93506020850135612d1481612b44565b925060408501359150606085013567ffffffffffffffff811115612d3757600080fd5b8501601f81018713612d4857600080fd5b612d5787823560208401612b9b565b91505092959194509250565b600080600060608486031215612d7857600080fd5b8335612d8381612b44565b92506020840135612d9381612b44565b929592945050506040919091013590565b60008060408385031215612db757600080fd5b823591506020830135612dc981612b44565b809150509250929050565b60008060408385031215612de757600080fd5b823567ffffffffffffffff811115612dfe57600080fd5b612e0a85828601612c11565b95602094909401359450505050565b600060208284031215612e2b57600080fd5b813561148181612b44565b60008060408385031215612e4957600080fd5b8235612e5481612b44565b9150602083013567ffffffffffffffff811115612e7057600080fd5b612e7c85828601612c11565b9150509250929050565b80151581146114ba57600080fd5b60008060408385031215612ea757600080fd5b8235612eb281612b44565b91506020830135612dc981612e86565b600060208284031215612ed457600080fd5b813567ffffffffffffffff811115612eeb57600080fd5b610c8484828501612c11565b60008060408385031215612f0a57600080fd5b8235612f1581612b44565b91506020830135612dc981612b44565b600181811c90821680612f3957607f821691505b602082108103612f5957634e487b7160e01b600052602260045260246000fd5b50919050565b60008251612f71818460208701612aa7565b9190910192915050565b634e487b7160e01b600052601160045260246000fd5b600060018201612fa357612fa3612f7b565b5060010190565b600060208284031215612fbc57600080fd5b813560ff8116811461148157600080fd5b600060208284031215612fdf57600080fd5b815161148181612b44565b6001600160a01b0385168152602081018490526060604082018190528101829052818360808301376000818301608090810191909152601f909201601f191601019392505050565b6020808252602d908201527f4552433732313a2063616c6c6572206973206e6f7420746f6b656e206f776e6560408201526c1c881bdc88185c1c1c9bdd9959609a1b606082015260800190565b601f82111561082e57600081815260208120601f850160051c810160208610156130a65750805b601f850160051c820191505b818110156130c5578281556001016130b2565b505050505050565b815167ffffffffffffffff8111156130e7576130e7612b85565b6130fb816130f58454612f25565b8461307f565b602080601f83116001811461313057600084156131185750858301515b600019600386901b1c1916600185901b1785556130c5565b600085815260208120601f198616915b8281101561315f57888601518255948401946001909101908401613140565b508582101561317d5787850151600019600388901b60f8161c191681555b5050505050600190811b01905550565b6040815260006131a06040830185612acb565b90508260208301529392505050565b600083516131c1818460208801612aa7565b8351908301906131d5818360208801612aa7565b01949350505050565b60208082526025908201527f4552433732313a207472616e736665722066726f6d20696e636f72726563742060408201526437bbb732b960d91b606082015260800190565b60006020828403121561323557600080fd5b5051919050565b8082018082111561059e5761059e612f7b565b6020808252602b908201527f496e697469616c697a61626c653a20636f6e7472616374206973206e6f74206960408201526a6e697469616c697a696e6760a81b606082015260800190565b60208082526032908201527f4552433732313a207472616e7366657220746f206e6f6e20455243373231526560408201527131b2b4bb32b91034b6b83632b6b2b73a32b960711b606082015260800190565b8181038181111561059e5761059e612f7b565b7f416363657373436f6e74726f6c3a206163636f756e7420000000000000000000815260008351613337816017850160208801612aa7565b7001034b99036b4b9b9b4b733903937b6329607d1b6017918401918201528351613368816028840160208801612aa7565b01602801949350505050565b6001600160a01b03858116825284166020820152604081018390526080606082018190526000906133a790830184612acb565b9695505050505050565b6000602082840312156133c357600080fd5b815161148181612a5b565b6000602082840312156133e057600080fd5b815161148181612e86565b808202811582820484141761059e5761059e612f7b565b634e487b7160e01b600052603260045260246000fd5b60008161342757613427612f7b565b50600019019056fe2b8f168f361ac1393a163ed4adfa899a87be7b7c71645167bdaddd822ae453c8a26469706673582212204525348984083601f910d69a5db17f8364c83a019c2e88c62a3e3a5d49906f8d64736f6c63430008130033",
    "linkReferences": {},
    "deployedLinkReferences": {}
}